{
  "_format": "hh-sol-artifact-1",
  "contractName": "Profile",
  "sourceName": "contracts/Profile.sol",
  "abi": [
    {
      "inputs": [
        {
          "internalType": "address",
          "name": "_xCryptoContract",
          "type": "address"
        }
      ],
      "stateMutability": "nonpayable",
      "type": "constructor"
    },
    {
      "inputs": [
        {
          "internalType": "address",
          "name": "owner",
          "type": "address"
        }
      ],
      "name": "OwnableInvalidOwner",
      "type": "error"
    },
    {
      "inputs": [
        {
          "internalType": "address",
          "name": "account",
          "type": "address"
        }
      ],
      "name": "OwnableUnauthorizedAccount",
      "type": "error"
    },
    {
      "anonymous": false,
      "inputs": [
        {
          "indexed": true,
          "internalType": "address",
          "name": "previousOwner",
          "type": "address"
        },
        {
          "indexed": true,
          "internalType": "address",
          "name": "newOwner",
          "type": "address"
        }
      ],
      "name": "OwnershipTransferred",
      "type": "event"
    },
    {
      "inputs": [
        {
          "internalType": "address",
          "name": "_user",
          "type": "address"
        }
      ],
      "name": "getProfile",
      "outputs": [
        {
          "components": [
            {
              "internalType": "string",
              "name": "displayName",
              "type": "string"
            },
            {
              "internalType": "string",
              "name": "bio",
              "type": "string"
            }
          ],
          "internalType": "struct Profile.userProfile",
          "name": "",
          "type": "tuple"
        }
      ],
      "stateMutability": "view",
      "type": "function"
    },
    {
      "inputs": [],
      "name": "owner",
      "outputs": [
        {
          "internalType": "address",
          "name": "",
          "type": "address"
        }
      ],
      "stateMutability": "view",
      "type": "function"
    },
    {
      "inputs": [
        {
          "internalType": "address",
          "name": "",
          "type": "address"
        }
      ],
      "name": "profiles",
      "outputs": [
        {
          "internalType": "string",
          "name": "displayName",
          "type": "string"
        },
        {
          "internalType": "string",
          "name": "bio",
          "type": "string"
        }
      ],
      "stateMutability": "view",
      "type": "function"
    },
    {
      "inputs": [],
      "name": "renounceOwnership",
      "outputs": [],
      "stateMutability": "nonpayable",
      "type": "function"
    },
    {
      "inputs": [
        {
          "internalType": "string",
          "name": "_displayName",
          "type": "string"
        },
        {
          "internalType": "string",
          "name": "_bio",
          "type": "string"
        }
      ],
      "name": "setProfile",
      "outputs": [],
      "stateMutability": "nonpayable",
      "type": "function"
    },
    {
      "inputs": [
        {
          "internalType": "address",
          "name": "_xCryptoContract",
          "type": "address"
        }
      ],
      "name": "setXCryptoContract",
      "outputs": [],
      "stateMutability": "nonpayable",
      "type": "function"
    },
    {
      "inputs": [
        {
          "internalType": "address",
          "name": "newOwner",
          "type": "address"
        }
      ],
      "name": "transferOwnership",
      "outputs": [],
      "stateMutability": "nonpayable",
      "type": "function"
    },
    {
      "inputs": [],
      "name": "xCryptoContract",
      "outputs": [
        {
          "internalType": "contract IXCrypto",
          "name": "",
          "type": "address"
        }
      ],
      "stateMutability": "view",
      "type": "function"
    }
  ],
  "bytecode": "0x60806040523480156200001157600080fd5b506040516200130c3803806200130c833981810160405281019062000037919062000235565b33600073ffffffffffffffffffffffffffffffffffffffff168173ffffffffffffffffffffffffffffffffffffffff1603620000ad5760006040517f1e4fbdf7000000000000000000000000000000000000000000000000000000008152600401620000a4919062000278565b60405180910390fd5b620000be816200010760201b60201c565b5080600160006101000a81548173ffffffffffffffffffffffffffffffffffffffff021916908373ffffffffffffffffffffffffffffffffffffffff1602179055505062000295565b60008060009054906101000a900473ffffffffffffffffffffffffffffffffffffffff169050816000806101000a81548173ffffffffffffffffffffffffffffffffffffffff021916908373ffffffffffffffffffffffffffffffffffffffff1602179055508173ffffffffffffffffffffffffffffffffffffffff168173ffffffffffffffffffffffffffffffffffffffff167f8be0079c531659141344cd1fd0a4f28419497f9722a3daafe3b4186f6b6457e060405160405180910390a35050565b600080fd5b600073ffffffffffffffffffffffffffffffffffffffff82169050919050565b6000620001fd82620001d0565b9050919050565b6200020f81620001f0565b81146200021b57600080fd5b50565b6000815190506200022f8162000204565b92915050565b6000602082840312156200024e576200024d620001cb565b5b60006200025e848285016200021e565b91505092915050565b6200027281620001f0565b82525050565b60006020820190506200028f600083018462000267565b92915050565b61106780620002a56000396000f3fe608060405234801561001057600080fd5b50600436106100885760003560e01c80638da5cb5b1161005b5780638da5cb5b14610101578063bbe156271461011f578063c0d99aef14610150578063f2fde38b1461016c57610088565b80630f53a4701461008d578063715018a6146100bd578063719e37ae146100c757806388e2db57146100e3575b600080fd5b6100a760048036038101906100a291906108f2565b610188565b6040516100b491906109f3565b60405180910390f35b6100c5610305565b005b6100e160048036038101906100dc9190610b4a565b610319565b005b6100eb6104be565b6040516100f89190610c21565b60405180910390f35b6101096104e4565b6040516101169190610c4b565b60405180910390f35b610139600480360381019061013491906108f2565b61050d565b604051610147929190610cb0565b60405180910390f35b61016a600480360381019061016591906108f2565b610641565b005b610186600480360381019061018191906108f2565b61068d565b005b610190610866565b600260008373ffffffffffffffffffffffffffffffffffffffff1673ffffffffffffffffffffffffffffffffffffffff1681526020019081526020016000206040518060400160405290816000820180546101ea90610d16565b80601f016020809104026020016040519081016040528092919081815260200182805461021690610d16565b80156102635780601f1061023857610100808354040283529160200191610263565b820191906000526020600020905b81548152906001019060200180831161024657829003601f168201915b5050505050815260200160018201805461027c90610d16565b80601f01602080910402602001604051908101604052809291908181526020018280546102a890610d16565b80156102f55780601f106102ca576101008083540402835291602001916102f5565b820191906000526020600020905b8154815290600101906020018083116102d857829003601f168201915b5050505050815250509050919050565b61030d610713565b610317600061079a565b565b6000600260003373ffffffffffffffffffffffffffffffffffffffff1673ffffffffffffffffffffffffffffffffffffffff168152602001908152602001600020600001805461036890610d16565b9050146103aa576040517f08c379a00000000000000000000000000000000000000000000000000000000081526004016103a190610d93565b60405180910390fd5b604051806040016040528083815260200182815250600260003373ffffffffffffffffffffffffffffffffffffffff1673ffffffffffffffffffffffffffffffffffffffff16815260200190815260200160002060008201518160000190816104139190610f5f565b5060208201518160010190816104299190610f5f565b50905050600160009054906101000a900473ffffffffffffffffffffffffffffffffffffffff1673ffffffffffffffffffffffffffffffffffffffff166321611e2f336040518263ffffffff1660e01b81526004016104889190610c4b565b600060405180830381600087803b1580156104a257600080fd5b505af11580156104b6573d6000803e3d6000fd5b505050505050565b600160009054906101000a900473ffffffffffffffffffffffffffffffffffffffff1681565b60008060009054906101000a900473ffffffffffffffffffffffffffffffffffffffff16905090565b600260205280600052604060002060009150905080600001805461053090610d16565b80601f016020809104026020016040519081016040528092919081815260200182805461055c90610d16565b80156105a95780601f1061057e576101008083540402835291602001916105a9565b820191906000526020600020905b81548152906001019060200180831161058c57829003601f168201915b5050505050908060010180546105be90610d16565b80601f01602080910402602001604051908101604052809291908181526020018280546105ea90610d16565b80156106375780601f1061060c57610100808354040283529160200191610637565b820191906000526020600020905b81548152906001019060200180831161061a57829003601f168201915b5050505050905082565b610649610713565b80600160006101000a81548173ffffffffffffffffffffffffffffffffffffffff021916908373ffffffffffffffffffffffffffffffffffffffff16021790555050565b610695610713565b600073ffffffffffffffffffffffffffffffffffffffff168173ffffffffffffffffffffffffffffffffffffffff16036107075760006040517f1e4fbdf70000000000000000000000000000000000000000000000000000000081526004016106fe9190610c4b565b60405180910390fd5b6107108161079a565b50565b61071b61085e565b73ffffffffffffffffffffffffffffffffffffffff166107396104e4565b73ffffffffffffffffffffffffffffffffffffffff16146107985761075c61085e565b6040517f118cdaa700000000000000000000000000000000000000000000000000000000815260040161078f9190610c4b565b60405180910390fd5b565b60008060009054906101000a900473ffffffffffffffffffffffffffffffffffffffff169050816000806101000a81548173ffffffffffffffffffffffffffffffffffffffff021916908373ffffffffffffffffffffffffffffffffffffffff1602179055508173ffffffffffffffffffffffffffffffffffffffff168173ffffffffffffffffffffffffffffffffffffffff167f8be0079c531659141344cd1fd0a4f28419497f9722a3daafe3b4186f6b6457e060405160405180910390a35050565b600033905090565b604051806040016040528060608152602001606081525090565b6000604051905090565b600080fd5b600080fd5b600073ffffffffffffffffffffffffffffffffffffffff82169050919050565b60006108bf82610894565b9050919050565b6108cf816108b4565b81146108da57600080fd5b50565b6000813590506108ec816108c6565b92915050565b6000602082840312156109085761090761088a565b5b6000610916848285016108dd565b91505092915050565b600081519050919050565b600082825260208201905092915050565b60005b8381101561095957808201518184015260208101905061093e565b60008484015250505050565b6000601f19601f8301169050919050565b60006109818261091f565b61098b818561092a565b935061099b81856020860161093b565b6109a481610965565b840191505092915050565b600060408301600083015184820360008601526109cc8282610976565b915050602083015184820360208601526109e68282610976565b9150508091505092915050565b60006020820190508181036000830152610a0d81846109af565b905092915050565b600080fd5b600080fd5b7f4e487b7100000000000000000000000000000000000000000000000000000000600052604160045260246000fd5b610a5782610965565b810181811067ffffffffffffffff82111715610a7657610a75610a1f565b5b80604052505050565b6000610a89610880565b9050610a958282610a4e565b919050565b600067ffffffffffffffff821115610ab557610ab4610a1f565b5b610abe82610965565b9050602081019050919050565b82818337600083830152505050565b6000610aed610ae884610a9a565b610a7f565b905082815260208101848484011115610b0957610b08610a1a565b5b610b14848285610acb565b509392505050565b600082601f830112610b3157610b30610a15565b5b8135610b41848260208601610ada565b91505092915050565b60008060408385031215610b6157610b6061088a565b5b600083013567ffffffffffffffff811115610b7f57610b7e61088f565b5b610b8b85828601610b1c565b925050602083013567ffffffffffffffff811115610bac57610bab61088f565b5b610bb885828601610b1c565b9150509250929050565b6000819050919050565b6000610be7610be2610bdd84610894565b610bc2565b610894565b9050919050565b6000610bf982610bcc565b9050919050565b6000610c0b82610bee565b9050919050565b610c1b81610c00565b82525050565b6000602082019050610c366000830184610c12565b92915050565b610c45816108b4565b82525050565b6000602082019050610c606000830184610c3c565b92915050565b600082825260208201905092915050565b6000610c828261091f565b610c8c8185610c66565b9350610c9c81856020860161093b565b610ca581610965565b840191505092915050565b60006040820190508181036000830152610cca8185610c77565b90508181036020830152610cde8184610c77565b90509392505050565b7f4e487b7100000000000000000000000000000000000000000000000000000000600052602260045260246000fd5b60006002820490506001821680610d2e57607f821691505b602082108103610d4157610d40610ce7565b5b50919050565b7f50726f66696c6520616c72656164792073657400000000000000000000000000600082015250565b6000610d7d601383610c66565b9150610d8882610d47565b602082019050919050565b60006020820190508181036000830152610dac81610d70565b9050919050565b60008190508160005260206000209050919050565b60006020601f8301049050919050565b600082821b905092915050565b600060088302610e157fffffffffffffffffffffffffffffffffffffffffffffffffffffffffffffffff82610dd8565b610e1f8683610dd8565b95508019841693508086168417925050509392505050565b6000819050919050565b6000610e5c610e57610e5284610e37565b610bc2565b610e37565b9050919050565b6000819050919050565b610e7683610e41565b610e8a610e8282610e63565b848454610de5565b825550505050565b600090565b610e9f610e92565b610eaa818484610e6d565b505050565b5b81811015610ece57610ec3600082610e97565b600181019050610eb0565b5050565b601f821115610f1357610ee481610db3565b610eed84610dc8565b81016020851015610efc578190505b610f10610f0885610dc8565b830182610eaf565b50505b505050565b600082821c905092915050565b6000610f3660001984600802610f18565b1980831691505092915050565b6000610f4f8383610f25565b9150826002028217905092915050565b610f688261091f565b67ffffffffffffffff811115610f8157610f80610a1f565b5b610f8b8254610d16565b610f96828285610ed2565b600060209050601f831160018114610fc95760008415610fb7578287015190505b610fc18582610f43565b865550611029565b601f198416610fd786610db3565b60005b82811015610fff57848901518255600182019150602085019450602081019050610fda565b8683101561101c5784890151611018601f891682610f25565b8355505b6001600288020188555050505b50505050505056fea26469706673582212207f33212841b82e966c10bea7b848c5507440119846a6de43296b474d1f7363b064736f6c63430008140033",
  "linkReferences": {},
  "deployedLinkReferences": {}
}