{
  "_format": "hh-sol-artifact-1",
  "contractName": "XCryptoToken",
  "sourceName": "contracts/XCryproToken.sol",
  "abi": [
    {
      "inputs": [],
      "stateMutability": "nonpayable",
      "type": "constructor"
    },
    {
      "inputs": [
        {
          "internalType": "address",
          "name": "spender",
          "type": "address"
        },
        {
          "internalType": "uint256",
          "name": "allowance",
          "type": "uint256"
        },
        {
          "internalType": "uint256",
          "name": "needed",
          "type": "uint256"
        }
      ],
      "name": "ERC20InsufficientAllowance",
      "type": "error"
    },
    {
      "inputs": [
        {
          "internalType": "address",
          "name": "sender",
          "type": "address"
        },
        {
          "internalType": "uint256",
          "name": "balance",
          "type": "uint256"
        },
        {
          "internalType": "uint256",
          "name": "needed",
          "type": "uint256"
        }
      ],
      "name": "ERC20InsufficientBalance",
      "type": "error"
    },
    {
      "inputs": [
        {
          "internalType": "address",
          "name": "approver",
          "type": "address"
        }
      ],
      "name": "ERC20InvalidApprover",
      "type": "error"
    },
    {
      "inputs": [
        {
          "internalType": "address",
          "name": "receiver",
          "type": "address"
        }
      ],
      "name": "ERC20InvalidReceiver",
      "type": "error"
    },
    {
      "inputs": [
        {
          "internalType": "address",
          "name": "sender",
          "type": "address"
        }
      ],
      "name": "ERC20InvalidSender",
      "type": "error"
    },
    {
      "inputs": [
        {
          "internalType": "address",
          "name": "spender",
          "type": "address"
        }
      ],
      "name": "ERC20InvalidSpender",
      "type": "error"
    },
    {
      "inputs": [
        {
          "internalType": "address",
          "name": "owner",
          "type": "address"
        }
      ],
      "name": "OwnableInvalidOwner",
      "type": "error"
    },
    {
      "inputs": [
        {
          "internalType": "address",
          "name": "account",
          "type": "address"
        }
      ],
      "name": "OwnableUnauthorizedAccount",
      "type": "error"
    },
    {
      "anonymous": false,
      "inputs": [
        {
          "indexed": true,
          "internalType": "address",
          "name": "owner",
          "type": "address"
        },
        {
          "indexed": true,
          "internalType": "address",
          "name": "spender",
          "type": "address"
        },
        {
          "indexed": false,
          "internalType": "uint256",
          "name": "value",
          "type": "uint256"
        }
      ],
      "name": "Approval",
      "type": "event"
    },
    {
      "anonymous": false,
      "inputs": [
        {
          "indexed": true,
          "internalType": "address",
          "name": "previousOwner",
          "type": "address"
        },
        {
          "indexed": true,
          "internalType": "address",
          "name": "newOwner",
          "type": "address"
        }
      ],
      "name": "OwnershipTransferred",
      "type": "event"
    },
    {
      "anonymous": false,
      "inputs": [
        {
          "indexed": true,
          "internalType": "address",
          "name": "from",
          "type": "address"
        },
        {
          "indexed": true,
          "internalType": "address",
          "name": "to",
          "type": "address"
        },
        {
          "indexed": false,
          "internalType": "uint256",
          "name": "value",
          "type": "uint256"
        }
      ],
      "name": "Transfer",
      "type": "event"
    },
    {
      "inputs": [],
      "name": "CONTRACT_SHARE",
      "outputs": [
        {
          "internalType": "uint256",
          "name": "",
          "type": "uint256"
        }
      ],
      "stateMutability": "view",
      "type": "function"
    },
    {
      "inputs": [],
      "name": "DECIMALS",
      "outputs": [
        {
          "internalType": "uint8",
          "name": "",
          "type": "uint8"
        }
      ],
      "stateMutability": "view",
      "type": "function"
    },
    {
      "inputs": [],
      "name": "DEPLOYER_SHARE",
      "outputs": [
        {
          "internalType": "uint256",
          "name": "",
          "type": "uint256"
        }
      ],
      "stateMutability": "view",
      "type": "function"
    },
    {
      "inputs": [],
      "name": "INITIAL_SUPPLY",
      "outputs": [
        {
          "internalType": "uint256",
          "name": "",
          "type": "uint256"
        }
      ],
      "stateMutability": "view",
      "type": "function"
    },
    {
      "inputs": [
        {
          "internalType": "address",
          "name": "owner",
          "type": "address"
        },
        {
          "internalType": "address",
          "name": "spender",
          "type": "address"
        }
      ],
      "name": "allowance",
      "outputs": [
        {
          "internalType": "uint256",
          "name": "",
          "type": "uint256"
        }
      ],
      "stateMutability": "view",
      "type": "function"
    },
    {
      "inputs": [
        {
          "internalType": "address",
          "name": "spender",
          "type": "address"
        },
        {
          "internalType": "uint256",
          "name": "value",
          "type": "uint256"
        }
      ],
      "name": "approve",
      "outputs": [
        {
          "internalType": "bool",
          "name": "",
          "type": "bool"
        }
      ],
      "stateMutability": "nonpayable",
      "type": "function"
    },
    {
      "inputs": [
        {
          "internalType": "address",
          "name": "account",
          "type": "address"
        }
      ],
      "name": "balanceOf",
      "outputs": [
        {
          "internalType": "uint256",
          "name": "",
          "type": "uint256"
        }
      ],
      "stateMutability": "view",
      "type": "function"
    },
    {
      "inputs": [],
      "name": "decimals",
      "outputs": [
        {
          "internalType": "uint8",
          "name": "",
          "type": "uint8"
        }
      ],
      "stateMutability": "view",
      "type": "function"
    },
    {
      "inputs": [
        {
          "internalType": "address",
          "name": "to",
          "type": "address"
        },
        {
          "internalType": "uint256",
          "name": "amount",
          "type": "uint256"
        }
      ],
      "name": "mint",
      "outputs": [],
      "stateMutability": "nonpayable",
      "type": "function"
    },
    {
      "inputs": [],
      "name": "name",
      "outputs": [
        {
          "internalType": "string",
          "name": "",
          "type": "string"
        }
      ],
      "stateMutability": "view",
      "type": "function"
    },
    {
      "inputs": [],
      "name": "owner",
      "outputs": [
        {
          "internalType": "address",
          "name": "",
          "type": "address"
        }
      ],
      "stateMutability": "view",
      "type": "function"
    },
    {
      "inputs": [],
      "name": "renounceOwnership",
      "outputs": [],
      "stateMutability": "nonpayable",
      "type": "function"
    },
    {
      "inputs": [],
      "name": "symbol",
      "outputs": [
        {
          "internalType": "string",
          "name": "",
          "type": "string"
        }
      ],
      "stateMutability": "view",
      "type": "function"
    },
    {
      "inputs": [],
      "name": "totalSupply",
      "outputs": [
        {
          "internalType": "uint256",
          "name": "",
          "type": "uint256"
        }
      ],
      "stateMutability": "view",
      "type": "function"
    },
    {
      "inputs": [
        {
          "internalType": "address",
          "name": "to",
          "type": "address"
        },
        {
          "internalType": "uint256",
          "name": "value",
          "type": "uint256"
        }
      ],
      "name": "transfer",
      "outputs": [
        {
          "internalType": "bool",
          "name": "",
          "type": "bool"
        }
      ],
      "stateMutability": "nonpayable",
      "type": "function"
    },
    {
      "inputs": [
        {
          "internalType": "address",
          "name": "from",
          "type": "address"
        },
        {
          "internalType": "address",
          "name": "to",
          "type": "address"
        },
        {
          "internalType": "uint256",
          "name": "value",
          "type": "uint256"
        }
      ],
      "name": "transferFrom",
      "outputs": [
        {
          "internalType": "bool",
          "name": "",
          "type": "bool"
        }
      ],
      "stateMutability": "nonpayable",
      "type": "function"
    },
    {
      "inputs": [
        {
          "internalType": "address",
          "name": "newOwner",
          "type": "address"
        }
      ],
      "name": "transferOwnership",
      "outputs": [],
      "stateMutability": "nonpayable",
      "type": "function"
    }
  ],
  "bytecode": "0x60806040523480156200001157600080fd5b50336040518060400160405280600c81526020017f5843727970746f546f6b656e00000000000000000000000000000000000000008152506040518060400160405280600381526020017f58435400000000000000000000000000000000000000000000000000000000008152508160039081620000909190620007e2565b508060049081620000a29190620007e2565b505050600073ffffffffffffffffffffffffffffffffffffffff168173ffffffffffffffffffffffffffffffffffffffff16036200011a5760006040517f1e4fbdf70000000000000000000000000000000000000000000000000000000081526004016200011191906200090e565b60405180910390fd5b6200012b81620001e560201b60201c565b506200016e336002601260ff16600a62000146919062000aae565b620f424062000156919062000aff565b62000162919062000b79565b620002ab60201b60201c565b620001df306002601260ff16600a62000188919062000aae565b620f424062000198919062000aff565b620001a4919062000b79565b601260ff16600a620001b7919062000aae565b620f4240620001c7919062000aff565b620001d3919062000bb1565b620002ab60201b60201c565b62000c92565b6000600560009054906101000a900473ffffffffffffffffffffffffffffffffffffffff16905081600560006101000a81548173ffffffffffffffffffffffffffffffffffffffff021916908373ffffffffffffffffffffffffffffffffffffffff1602179055508173ffffffffffffffffffffffffffffffffffffffff168173ffffffffffffffffffffffffffffffffffffffff167f8be0079c531659141344cd1fd0a4f28419497f9722a3daafe3b4186f6b6457e060405160405180910390a35050565b600073ffffffffffffffffffffffffffffffffffffffff168273ffffffffffffffffffffffffffffffffffffffff1603620003205760006040517fec442f050000000000000000000000000000000000000000000000000000000081526004016200031791906200090e565b60405180910390fd5b62000334600083836200033860201b60201c565b5050565b600073ffffffffffffffffffffffffffffffffffffffff168373ffffffffffffffffffffffffffffffffffffffff16036200038e57806002600082825462000381919062000bec565b9250508190555062000464565b60008060008573ffffffffffffffffffffffffffffffffffffffff1673ffffffffffffffffffffffffffffffffffffffff168152602001908152602001600020549050818110156200041d578381836040517fe450d38c000000000000000000000000000000000000000000000000000000008152600401620004149392919062000c38565b60405180910390fd5b8181036000808673ffffffffffffffffffffffffffffffffffffffff1673ffffffffffffffffffffffffffffffffffffffff16815260200190815260200160002081905550505b600073ffffffffffffffffffffffffffffffffffffffff168273ffffffffffffffffffffffffffffffffffffffff1603620004af5780600260008282540392505081905550620004fc565b806000808473ffffffffffffffffffffffffffffffffffffffff1673ffffffffffffffffffffffffffffffffffffffff168152602001908152602001600020600082825401925050819055505b8173ffffffffffffffffffffffffffffffffffffffff168373ffffffffffffffffffffffffffffffffffffffff167fddf252ad1be2c89b69c2b068fc378daa952ba7f163c4a11628f55a4df523b3ef836040516200055b919062000c75565b60405180910390a3505050565b600081519050919050565b7f4e487b7100000000000000000000000000000000000000000000000000000000600052604160045260246000fd5b7f4e487b7100000000000000000000000000000000000000000000000000000000600052602260045260246000fd5b60006002820490506001821680620005ea57607f821691505b6020821081036200060057620005ff620005a2565b5b50919050565b60008190508160005260206000209050919050565b60006020601f8301049050919050565b600082821b905092915050565b6000600883026200066a7fffffffffffffffffffffffffffffffffffffffffffffffffffffffffffffffff826200062b565b6200067686836200062b565b95508019841693508086168417925050509392505050565b6000819050919050565b6000819050919050565b6000620006c3620006bd620006b7846200068e565b62000698565b6200068e565b9050919050565b6000819050919050565b620006df83620006a2565b620006f7620006ee82620006ca565b84845462000638565b825550505050565b600090565b6200070e620006ff565b6200071b818484620006d4565b505050565b5b8181101562000743576200073760008262000704565b60018101905062000721565b5050565b601f82111562000792576200075c8162000606565b62000767846200061b565b8101602085101562000777578190505b6200078f62000786856200061b565b83018262000720565b50505b505050565b600082821c905092915050565b6000620007b76000198460080262000797565b1980831691505092915050565b6000620007d28383620007a4565b9150826002028217905092915050565b620007ed8262000568565b67ffffffffffffffff81111562000809576200080862000573565b5b620008158254620005d1565b6200082282828562000747565b600060209050601f8311600181146200085a576000841562000845578287015190505b620008518582620007c4565b865550620008c1565b601f1984166200086a8662000606565b60005b8281101562000894578489015182556001820191506020850194506020810190506200086d565b86831015620008b45784890151620008b0601f891682620007a4565b8355505b6001600288020188555050505b505050505050565b600073ffffffffffffffffffffffffffffffffffffffff82169050919050565b6000620008f682620008c9565b9050919050565b6200090881620008e9565b82525050565b6000602082019050620009256000830184620008fd565b92915050565b7f4e487b7100000000000000000000000000000000000000000000000000000000600052601160045260246000fd5b60008160011c9050919050565b6000808291508390505b6001851115620009b9578086048111156200099157620009906200092b565b5b6001851615620009a15780820291505b8081029050620009b1856200095a565b945062000971565b94509492505050565b600082620009d4576001905062000aa7565b81620009e4576000905062000aa7565b8160018114620009fd576002811462000a085762000a3e565b600191505062000aa7565b60ff84111562000a1d5762000a1c6200092b565b5b8360020a91508482111562000a375762000a366200092b565b5b5062000aa7565b5060208310610133831016604e8410600b841016171562000a785782820a90508381111562000a725762000a716200092b565b5b62000aa7565b62000a87848484600162000967565b9250905081840481111562000aa15762000aa06200092b565b5b81810290505b9392505050565b600062000abb826200068e565b915062000ac8836200068e565b925062000af77fffffffffffffffffffffffffffffffffffffffffffffffffffffffffffffffff8484620009c2565b905092915050565b600062000b0c826200068e565b915062000b19836200068e565b925082820262000b29816200068e565b9150828204841483151762000b435762000b426200092b565b5b5092915050565b7f4e487b7100000000000000000000000000000000000000000000000000000000600052601260045260246000fd5b600062000b86826200068e565b915062000b93836200068e565b92508262000ba65762000ba562000b4a565b5b828204905092915050565b600062000bbe826200068e565b915062000bcb836200068e565b925082820390508181111562000be65762000be56200092b565b5b92915050565b600062000bf9826200068e565b915062000c06836200068e565b925082820190508082111562000c215762000c206200092b565b5b92915050565b62000c32816200068e565b82525050565b600060608201905062000c4f6000830186620008fd565b62000c5e602083018562000c27565b62000c6d604083018462000c27565b949350505050565b600060208201905062000c8c600083018462000c27565b92915050565b61154f8062000ca26000396000f3fe608060405234801561001057600080fd5b506004361061010b5760003560e01c80637063d234116100a257806395d89b411161007157806395d89b4114610298578063a9059cbb146102b6578063dd62ed3e146102e6578063dfb8cf9314610316578063f2fde38b146103345761010b565b80637063d2341461022257806370a0823114610240578063715018a6146102705780638da5cb5b1461027a5761010b565b80632e0f2625116100de5780632e0f2625146101ac5780632ff2e9dc146101ca578063313ce567146101e857806340c10f19146102065761010b565b806306fdde0314610110578063095ea7b31461012e57806318160ddd1461015e57806323b872dd1461017c575b600080fd5b610118610350565b6040516101259190610f4f565b60405180910390f35b6101486004803603810190610143919061100a565b6103e2565b6040516101559190611065565b60405180910390f35b610166610405565b604051610173919061108f565b60405180910390f35b610196600480360381019061019191906110aa565b61040f565b6040516101a39190611065565b60405180910390f35b6101b461043e565b6040516101c19190611119565b60405180910390f35b6101d2610443565b6040516101df919061108f565b60405180910390f35b6101f0610465565b6040516101fd9190611119565b60405180910390f35b610220600480360381019061021b919061100a565b61046e565b005b61022a610484565b604051610237919061108f565b60405180910390f35b61025a60048036038101906102559190611134565b6104db565b604051610267919061108f565b60405180910390f35b610278610523565b005b610282610537565b60405161028f9190611170565b60405180910390f35b6102a0610561565b6040516102ad9190610f4f565b60405180910390f35b6102d060048036038101906102cb919061100a565b6105f3565b6040516102dd9190611065565b60405180910390f35b61030060048036038101906102fb919061118b565b610616565b60405161030d919061108f565b60405180910390f35b61031e61069d565b60405161032b919061108f565b60405180910390f35b61034e60048036038101906103499190611134565b6106cb565b005b60606003805461035f906111fa565b80601f016020809104026020016040519081016040528092919081815260200182805461038b906111fa565b80156103d85780601f106103ad576101008083540402835291602001916103d8565b820191906000526020600020905b8154815290600101906020018083116103bb57829003601f168201915b5050505050905090565b6000806103ed610751565b90506103fa818585610759565b600191505092915050565b6000600254905090565b60008061041a610751565b905061042785828561076b565b610432858585610800565b60019150509392505050565b601281565b601260ff16600a610454919061138d565b620f424061046291906113d8565b81565b60006012905090565b6104766108f4565b610480828261097b565b5050565b6002601260ff16600a610497919061138d565b620f42406104a591906113d8565b6104af9190611449565b601260ff16600a6104c0919061138d565b620f42406104ce91906113d8565b6104d8919061147a565b81565b60008060008373ffffffffffffffffffffffffffffffffffffffff1673ffffffffffffffffffffffffffffffffffffffff168152602001908152602001600020549050919050565b61052b6108f4565b61053560006109fd565b565b6000600560009054906101000a900473ffffffffffffffffffffffffffffffffffffffff16905090565b606060048054610570906111fa565b80601f016020809104026020016040519081016040528092919081815260200182805461059c906111fa565b80156105e95780601f106105be576101008083540402835291602001916105e9565b820191906000526020600020905b8154815290600101906020018083116105cc57829003601f168201915b5050505050905090565b6000806105fe610751565b905061060b818585610800565b600191505092915050565b6000600160008473ffffffffffffffffffffffffffffffffffffffff1673ffffffffffffffffffffffffffffffffffffffff16815260200190815260200160002060008373ffffffffffffffffffffffffffffffffffffffff1673ffffffffffffffffffffffffffffffffffffffff16815260200190815260200160002054905092915050565b6002601260ff16600a6106b0919061138d565b620f42406106be91906113d8565b6106c89190611449565b81565b6106d36108f4565b600073ffffffffffffffffffffffffffffffffffffffff168173ffffffffffffffffffffffffffffffffffffffff16036107455760006040517f1e4fbdf700000000000000000000000000000000000000000000000000000000815260040161073c9190611170565b60405180910390fd5b61074e816109fd565b50565b600033905090565b6107668383836001610ac3565b505050565b60006107778484610616565b90507fffffffffffffffffffffffffffffffffffffffffffffffffffffffffffffffff8110156107fa57818110156107ea578281836040517ffb8f41b20000000000000000000000000000000000000000000000000000000081526004016107e1939291906114ae565b60405180910390fd5b6107f984848484036000610ac3565b5b50505050565b600073ffffffffffffffffffffffffffffffffffffffff168373ffffffffffffffffffffffffffffffffffffffff16036108725760006040517f96c6fd1e0000000000000000000000000000000000000000000000000000000081526004016108699190611170565b60405180910390fd5b600073ffffffffffffffffffffffffffffffffffffffff168273ffffffffffffffffffffffffffffffffffffffff16036108e45760006040517fec442f050000000000000000000000000000000000000000000000000000000081526004016108db9190611170565b60405180910390fd5b6108ef838383610c9a565b505050565b6108fc610751565b73ffffffffffffffffffffffffffffffffffffffff1661091a610537565b73ffffffffffffffffffffffffffffffffffffffff16146109795761093d610751565b6040517f118cdaa70000000000000000000000000000000000000000000000000000000081526004016109709190611170565b60405180910390fd5b565b600073ffffffffffffffffffffffffffffffffffffffff168273ffffffffffffffffffffffffffffffffffffffff16036109ed5760006040517fec442f050000000000000000000000000000000000000000000000000000000081526004016109e49190611170565b60405180910390fd5b6109f960008383610c9a565b5050565b6000600560009054906101000a900473ffffffffffffffffffffffffffffffffffffffff16905081600560006101000a81548173ffffffffffffffffffffffffffffffffffffffff021916908373ffffffffffffffffffffffffffffffffffffffff1602179055508173ffffffffffffffffffffffffffffffffffffffff168173ffffffffffffffffffffffffffffffffffffffff167f8be0079c531659141344cd1fd0a4f28419497f9722a3daafe3b4186f6b6457e060405160405180910390a35050565b600073ffffffffffffffffffffffffffffffffffffffff168473ffffffffffffffffffffffffffffffffffffffff1603610b355760006040517fe602df05000000000000000000000000000000000000000000000000000000008152600401610b2c9190611170565b60405180910390fd5b600073ffffffffffffffffffffffffffffffffffffffff168373ffffffffffffffffffffffffffffffffffffffff1603610ba75760006040517f94280d62000000000000000000000000000000000000000000000000000000008152600401610b9e9190611170565b60405180910390fd5b81600160008673ffffffffffffffffffffffffffffffffffffffff1673ffffffffffffffffffffffffffffffffffffffff16815260200190815260200160002060008573ffffffffffffffffffffffffffffffffffffffff1673ffffffffffffffffffffffffffffffffffffffff168152602001908152602001600020819055508015610c94578273ffffffffffffffffffffffffffffffffffffffff168473ffffffffffffffffffffffffffffffffffffffff167f8c5be1e5ebec7d5bd14f71427d1e84f3dd0314c0f7b2291e5b200ac8c7c3b92584604051610c8b919061108f565b60405180910390a35b50505050565b600073ffffffffffffffffffffffffffffffffffffffff168373ffffffffffffffffffffffffffffffffffffffff1603610cec578060026000828254610ce091906114e5565b92505081905550610dbf565b60008060008573ffffffffffffffffffffffffffffffffffffffff1673ffffffffffffffffffffffffffffffffffffffff16815260200190815260200160002054905081811015610d78578381836040517fe450d38c000000000000000000000000000000000000000000000000000000008152600401610d6f939291906114ae565b60405180910390fd5b8181036000808673ffffffffffffffffffffffffffffffffffffffff1673ffffffffffffffffffffffffffffffffffffffff16815260200190815260200160002081905550505b600073ffffffffffffffffffffffffffffffffffffffff168273ffffffffffffffffffffffffffffffffffffffff1603610e085780600260008282540392505081905550610e55565b806000808473ffffffffffffffffffffffffffffffffffffffff1673ffffffffffffffffffffffffffffffffffffffff168152602001908152602001600020600082825401925050819055505b8173ffffffffffffffffffffffffffffffffffffffff168373ffffffffffffffffffffffffffffffffffffffff167fddf252ad1be2c89b69c2b068fc378daa952ba7f163c4a11628f55a4df523b3ef83604051610eb2919061108f565b60405180910390a3505050565b600081519050919050565b600082825260208201905092915050565b60005b83811015610ef9578082015181840152602081019050610ede565b60008484015250505050565b6000601f19601f8301169050919050565b6000610f2182610ebf565b610f2b8185610eca565b9350610f3b818560208601610edb565b610f4481610f05565b840191505092915050565b60006020820190508181036000830152610f698184610f16565b905092915050565b600080fd5b600073ffffffffffffffffffffffffffffffffffffffff82169050919050565b6000610fa182610f76565b9050919050565b610fb181610f96565b8114610fbc57600080fd5b50565b600081359050610fce81610fa8565b92915050565b6000819050919050565b610fe781610fd4565b8114610ff257600080fd5b50565b60008135905061100481610fde565b92915050565b6000806040838503121561102157611020610f71565b5b600061102f85828601610fbf565b925050602061104085828601610ff5565b9150509250929050565b60008115159050919050565b61105f8161104a565b82525050565b600060208201905061107a6000830184611056565b92915050565b61108981610fd4565b82525050565b60006020820190506110a46000830184611080565b92915050565b6000806000606084860312156110c3576110c2610f71565b5b60006110d186828701610fbf565b93505060206110e286828701610fbf565b92505060406110f386828701610ff5565b9150509250925092565b600060ff82169050919050565b611113816110fd565b82525050565b600060208201905061112e600083018461110a565b92915050565b60006020828403121561114a57611149610f71565b5b600061115884828501610fbf565b91505092915050565b61116a81610f96565b82525050565b60006020820190506111856000830184611161565b92915050565b600080604083850312156111a2576111a1610f71565b5b60006111b085828601610fbf565b92505060206111c185828601610fbf565b9150509250929050565b7f4e487b7100000000000000000000000000000000000000000000000000000000600052602260045260246000fd5b6000600282049050600182168061121257607f821691505b602082108103611225576112246111cb565b5b50919050565b7f4e487b7100000000000000000000000000000000000000000000000000000000600052601160045260246000fd5b60008160011c9050919050565b6000808291508390505b60018511156112b15780860481111561128d5761128c61122b565b5b600185161561129c5780820291505b80810290506112aa8561125a565b9450611271565b94509492505050565b6000826112ca5760019050611386565b816112d85760009050611386565b81600181146112ee57600281146112f857611327565b6001915050611386565b60ff84111561130a5761130961122b565b5b8360020a9150848211156113215761132061122b565b5b50611386565b5060208310610133831016604e8410600b841016171561135c5782820a9050838111156113575761135661122b565b5b611386565b6113698484846001611267565b925090508184048111156113805761137f61122b565b5b81810290505b9392505050565b600061139882610fd4565b91506113a383610fd4565b92506113d07fffffffffffffffffffffffffffffffffffffffffffffffffffffffffffffffff84846112ba565b905092915050565b60006113e382610fd4565b91506113ee83610fd4565b92508282026113fc81610fd4565b915082820484148315176114135761141261122b565b5b5092915050565b7f4e487b7100000000000000000000000000000000000000000000000000000000600052601260045260246000fd5b600061145482610fd4565b915061145f83610fd4565b92508261146f5761146e61141a565b5b828204905092915050565b600061148582610fd4565b915061149083610fd4565b92508282039050818111156114a8576114a761122b565b5b92915050565b60006060820190506114c36000830186611161565b6114d06020830185611080565b6114dd6040830184611080565b949350505050565b60006114f082610fd4565b91506114fb83610fd4565b92508282019050808211156115135761151261122b565b5b9291505056fea2646970667358221220e4e372de76958dda7383ae0b60688c2d6da8f1495a6c9e2aaed3d957e4bb82b764736f6c63430008140033",
  "linkReferences": {},
  "deployedLinkReferences": {}
}