{
  "_format": "hh-sol-artifact-1",
  "contractName": "XCrypto",
  "sourceName": "contracts/XCrypto.sol",
  "abi": [
    {
      "inputs": [
        {
          "internalType": "address",
          "name": "_profileContract",
          "type": "address"
        },
        {
          "internalType": "address",
          "name": "_tokenContract",
          "type": "address"
        }
      ],
      "stateMutability": "nonpayable",
      "type": "constructor"
    },
    {
      "inputs": [
        {
          "internalType": "address",
          "name": "owner",
          "type": "address"
        }
      ],
      "name": "OwnableInvalidOwner",
      "type": "error"
    },
    {
      "inputs": [
        {
          "internalType": "address",
          "name": "account",
          "type": "address"
        }
      ],
      "name": "OwnableUnauthorizedAccount",
      "type": "error"
    },
    {
      "anonymous": false,
      "inputs": [
        {
          "indexed": true,
          "internalType": "address",
          "name": "author",
          "type": "address"
        },
        {
          "indexed": false,
          "internalType": "uint256",
          "name": "amount",
          "type": "uint256"
        }
      ],
      "name": "LikeReward",
      "type": "event"
    },
    {
      "anonymous": false,
      "inputs": [
        {
          "indexed": false,
          "internalType": "uint256",
          "name": "id",
          "type": "uint256"
        },
        {
          "indexed": true,
          "internalType": "address",
          "name": "author",
          "type": "address"
        },
        {
          "indexed": false,
          "internalType": "string",
          "name": "text",
          "type": "string"
        },
        {
          "indexed": false,
          "internalType": "uint256",
          "name": "time",
          "type": "uint256"
        }
      ],
      "name": "NewTweet",
      "type": "event"
    },
    {
      "anonymous": false,
      "inputs": [
        {
          "indexed": true,
          "internalType": "address",
          "name": "previousOwner",
          "type": "address"
        },
        {
          "indexed": true,
          "internalType": "address",
          "name": "newOwner",
          "type": "address"
        }
      ],
      "name": "OwnershipTransferred",
      "type": "event"
    },
    {
      "anonymous": false,
      "inputs": [
        {
          "indexed": true,
          "internalType": "address",
          "name": "user",
          "type": "address"
        },
        {
          "indexed": false,
          "internalType": "uint256",
          "name": "amount",
          "type": "uint256"
        }
      ],
      "name": "PostDeduction",
      "type": "event"
    },
    {
      "anonymous": false,
      "inputs": [
        {
          "indexed": false,
          "internalType": "address",
          "name": "newProfileContract",
          "type": "address"
        }
      ],
      "name": "ProfileContractUpdated",
      "type": "event"
    },
    {
      "anonymous": false,
      "inputs": [
        {
          "indexed": true,
          "internalType": "address",
          "name": "user",
          "type": "address"
        },
        {
          "indexed": false,
          "internalType": "uint256",
          "name": "amount",
          "type": "uint256"
        }
      ],
      "name": "ProfileReward",
      "type": "event"
    },
    {
      "anonymous": false,
      "inputs": [
        {
          "indexed": false,
          "internalType": "address[]",
          "name": "likers",
          "type": "address[]"
        },
        {
          "indexed": false,
          "internalType": "address",
          "name": "currentLiker",
          "type": "address"
        },
        {
          "indexed": false,
          "internalType": "uint64",
          "name": "like",
          "type": "uint64"
        },
        {
          "indexed": false,
          "internalType": "uint256",
          "name": "id",
          "type": "uint256"
        }
      ],
      "name": "TweetLiked",
      "type": "event"
    },
    {
      "inputs": [],
      "name": "LIKE_REWARD",
      "outputs": [
        {
          "internalType": "uint256",
          "name": "",
          "type": "uint256"
        }
      ],
      "stateMutability": "view",
      "type": "function"
    },
    {
      "inputs": [],
      "name": "POST_COST",
      "outputs": [
        {
          "internalType": "uint256",
          "name": "",
          "type": "uint256"
        }
      ],
      "stateMutability": "view",
      "type": "function"
    },
    {
      "inputs": [],
      "name": "PROFILE_REWARD",
      "outputs": [
        {
          "internalType": "uint256",
          "name": "",
          "type": "uint256"
        }
      ],
      "stateMutability": "view",
      "type": "function"
    },
    {
      "inputs": [
        {
          "internalType": "address",
          "name": "_user",
          "type": "address"
        }
      ],
      "name": "getAllTweet",
      "outputs": [
        {
          "components": [
            {
              "internalType": "uint256",
              "name": "id",
              "type": "uint256"
            },
            {
              "internalType": "address",
              "name": "author",
              "type": "address"
            },
            {
              "internalType": "string",
              "name": "text",
              "type": "string"
            },
            {
              "internalType": "uint256",
              "name": "time",
              "type": "uint256"
            },
            {
              "internalType": "uint64",
              "name": "like",
              "type": "uint64"
            },
            {
              "internalType": "address[]",
              "name": "likers",
              "type": "address[]"
            }
          ],
          "internalType": "struct XCrypto.tweet[]",
          "name": "",
          "type": "tuple[]"
        }
      ],
      "stateMutability": "view",
      "type": "function"
    },
    {
      "inputs": [
        {
          "internalType": "address",
          "name": "_user",
          "type": "address"
        },
        {
          "internalType": "uint256",
          "name": "_index",
          "type": "uint256"
        }
      ],
      "name": "getSomething",
      "outputs": [
        {
          "internalType": "address[]",
          "name": "",
          "type": "address[]"
        }
      ],
      "stateMutability": "view",
      "type": "function"
    },
    {
      "inputs": [
        {
          "internalType": "address",
          "name": "_author",
          "type": "address"
        }
      ],
      "name": "getTotalUserLikes",
      "outputs": [
        {
          "internalType": "uint256",
          "name": "",
          "type": "uint256"
        }
      ],
      "stateMutability": "view",
      "type": "function"
    },
    {
      "inputs": [
        {
          "internalType": "address",
          "name": "_user",
          "type": "address"
        }
      ],
      "name": "getUserBalance",
      "outputs": [
        {
          "internalType": "uint256",
          "name": "",
          "type": "uint256"
        }
      ],
      "stateMutability": "view",
      "type": "function"
    },
    {
      "inputs": [
        {
          "internalType": "address",
          "name": "_author",
          "type": "address"
        },
        {
          "internalType": "uint256",
          "name": "_id",
          "type": "uint256"
        }
      ],
      "name": "likeTweet",
      "outputs": [],
      "stateMutability": "nonpayable",
      "type": "function"
    },
    {
      "inputs": [],
      "name": "owner",
      "outputs": [
        {
          "internalType": "address",
          "name": "",
          "type": "address"
        }
      ],
      "stateMutability": "view",
      "type": "function"
    },
    {
      "inputs": [
        {
          "internalType": "string",
          "name": "_tweet",
          "type": "string"
        }
      ],
      "name": "post",
      "outputs": [],
      "stateMutability": "nonpayable",
      "type": "function"
    },
    {
      "inputs": [],
      "name": "profileAddress",
      "outputs": [
        {
          "internalType": "address",
          "name": "",
          "type": "address"
        }
      ],
      "stateMutability": "view",
      "type": "function"
    },
    {
      "inputs": [],
      "name": "profileContract",
      "outputs": [
        {
          "internalType": "contract Iprofile",
          "name": "",
          "type": "address"
        }
      ],
      "stateMutability": "view",
      "type": "function"
    },
    {
      "inputs": [],
      "name": "renounceOwnership",
      "outputs": [],
      "stateMutability": "nonpayable",
      "type": "function"
    },
    {
      "inputs": [
        {
          "internalType": "address",
          "name": "_user",
          "type": "address"
        }
      ],
      "name": "rewardProfile",
      "outputs": [],
      "stateMutability": "nonpayable",
      "type": "function"
    },
    {
      "inputs": [
        {
          "internalType": "address",
          "name": "_profileContract",
          "type": "address"
        }
      ],
      "name": "setProfileContract",
      "outputs": [],
      "stateMutability": "nonpayable",
      "type": "function"
    },
    {
      "inputs": [
        {
          "internalType": "address",
          "name": "newOwner",
          "type": "address"
        }
      ],
      "name": "transferOwnership",
      "outputs": [],
      "stateMutability": "nonpayable",
      "type": "function"
    },
    {
      "inputs": [
        {
          "internalType": "address",
          "name": "",
          "type": "address"
        },
        {
          "internalType": "uint256",
          "name": "",
          "type": "uint256"
        }
      ],
      "name": "tweets",
      "outputs": [
        {
          "internalType": "uint256",
          "name": "id",
          "type": "uint256"
        },
        {
          "internalType": "address",
          "name": "author",
          "type": "address"
        },
        {
          "internalType": "string",
          "name": "text",
          "type": "string"
        },
        {
          "internalType": "uint256",
          "name": "time",
          "type": "uint256"
        },
        {
          "internalType": "uint64",
          "name": "like",
          "type": "uint64"
        }
      ],
      "stateMutability": "view",
      "type": "function"
    },
    {
      "inputs": [
        {
          "internalType": "address",
          "name": "_author",
          "type": "address"
        },
        {
          "internalType": "uint256",
          "name": "_id",
          "type": "uint256"
        }
      ],
      "name": "unLikeTweet",
      "outputs": [],
      "stateMutability": "nonpayable",
      "type": "function"
    },
    {
      "inputs": [],
      "name": "xCryptoToken",
      "outputs": [
        {
          "internalType": "contract IERC20",
          "name": "",
          "type": "address"
        }
      ],
      "stateMutability": "view",
      "type": "function"
    }
  ],
  "bytecode": "0x60806040523480156200001157600080fd5b5060405162003cfa38038062003cfa8339818101604052810190620000379190620002b8565b33600073ffffffffffffffffffffffffffffffffffffffff168173ffffffffffffffffffffffffffffffffffffffff1603620000ad5760006040517f1e4fbdf7000000000000000000000000000000000000000000000000000000008152600401620000a4919062000310565b60405180910390fd5b620000be816200018a60201b60201c565b5081600160006101000a81548173ffffffffffffffffffffffffffffffffffffffff021916908373ffffffffffffffffffffffffffffffffffffffff16021790555080600260006101000a81548173ffffffffffffffffffffffffffffffffffffffff021916908373ffffffffffffffffffffffffffffffffffffffff16021790555081600360006101000a81548173ffffffffffffffffffffffffffffffffffffffff021916908373ffffffffffffffffffffffffffffffffffffffff16021790555050506200032d565b60008060009054906101000a900473ffffffffffffffffffffffffffffffffffffffff169050816000806101000a81548173ffffffffffffffffffffffffffffffffffffffff021916908373ffffffffffffffffffffffffffffffffffffffff1602179055508173ffffffffffffffffffffffffffffffffffffffff168173ffffffffffffffffffffffffffffffffffffffff167f8be0079c531659141344cd1fd0a4f28419497f9722a3daafe3b4186f6b6457e060405160405180910390a35050565b600080fd5b600073ffffffffffffffffffffffffffffffffffffffff82169050919050565b6000620002808262000253565b9050919050565b620002928162000273565b81146200029e57600080fd5b50565b600081519050620002b28162000287565b92915050565b60008060408385031215620002d257620002d16200024e565b5b6000620002e285828601620002a1565b9250506020620002f585828601620002a1565b9150509250929050565b6200030a8162000273565b82525050565b6000602082019050620003276000830184620002ff565b92915050565b6139bd806200033d6000396000f3fe608060405234801561001057600080fd5b50600436106101215760003560e01c8063856f9eb6116100ad578063a3974b2111610071578063a3974b21146102e6578063b64988b814610304578063d5026a8914610334578063f0f8d4f114610364578063f2fde38b1461038257610121565b8063856f9eb6146102565780638da5cb5b146102745780638db8214e146102925780638ee93cf3146102ae5780639ef8633f146102ca57610121565b80635bd07ae5116100f45780635bd07ae5146101c457806363378216146101e25780636b1cc2a9146101fe5780636c167e031461022e578063715018a61461024c57610121565b806305a1b4a91461012657806321611e2f1461015a5780633eb83362146101765780634773489214610194575b600080fd5b610140600480360381019061013b91906124f2565b61039e565b604051610151959493929190612603565b60405180910390f35b610174600480360381019061016f919061265d565b6104ad565b005b61017e6106bc565b60405161018b919061268a565b60405180910390f35b6101ae60048036038101906101a9919061265d565b6106c8565b6040516101bb919061268a565b60405180910390f35b6101cc61076d565b6040516101d9919061268a565b60405180910390f35b6101fc60048036038101906101f791906124f2565b61077a565b005b6102186004803603810190610213919061265d565b610e01565b604051610225919061268a565b60405180910390f35b610236610efc565b60405161024391906126a5565b60405180910390f35b610254610f22565b005b61025e610f36565b60405161026b919061271f565b60405180910390f35b61027c610f5c565b60405161028991906126a5565b60405180910390f35b6102ac60048036038101906102a7919061265d565b610f85565b005b6102c860048036038101906102c3919061286f565b6110b8565b005b6102e460048036038101906102df91906124f2565b611596565b005b6102ee611dc6565b6040516102fb91906128d9565b60405180910390f35b61031e6004803603810190610319919061265d565b611dec565b60405161032b9190612b6c565b60405180910390f35b61034e600480360381019061034991906124f2565b612046565b60405161035b9190612bfd565b60405180910390f35b61036c612137565b604051610379919061268a565b60405180910390f35b61039c6004803603810190610397919061265d565b612143565b005b600460205281600052604060002081815481106103ba57600080fd5b9060005260206000209060060201600091509150508060000154908060010160009054906101000a900473ffffffffffffffffffffffffffffffffffffffff169080600201805461040a90612c4e565b80601f016020809104026020016040519081016040528092919081815260200182805461043690612c4e565b80156104835780601f1061045857610100808354040283529160200191610483565b820191906000526020600020905b81548152906001019060200180831161046657829003601f168201915b5050505050908060030154908060040160009054906101000a900467ffffffffffffffff16905085565b6104b5610f5c565b73ffffffffffffffffffffffffffffffffffffffff163373ffffffffffffffffffffffffffffffffffffffff16148061053b5750600360009054906101000a900473ffffffffffffffffffffffffffffffffffffffff1673ffffffffffffffffffffffffffffffffffffffff163373ffffffffffffffffffffffffffffffffffffffff16145b61057a576040517f08c379a000000000000000000000000000000000000000000000000000000000815260040161057190612ccb565b60405180910390fd5b600260009054906101000a900473ffffffffffffffffffffffffffffffffffffffff1673ffffffffffffffffffffffffffffffffffffffff1663a9059cbb8268056bc75e2d631000006040518363ffffffff1660e01b81526004016105e0929190612ceb565b6020604051808303816000875af11580156105ff573d6000803e3d6000fd5b505050506040513d601f19601f820116820180604052508101906106239190612d4c565b610662576040517f08c379a000000000000000000000000000000000000000000000000000000000815260040161065990612dc5565b60405180910390fd5b8073ffffffffffffffffffffffffffffffffffffffff167f675e6202c559e70892407b9eb6d7e04cd70b7a59da918e361a2c7d129a36a93968056bc75e2d631000006040516106b1919061268a565b60405180910390a250565b674563918244f4000081565b6000600260009054906101000a900473ffffffffffffffffffffffffffffffffffffffff1673ffffffffffffffffffffffffffffffffffffffff166370a08231836040518263ffffffff1660e01b815260040161072591906126a5565b602060405180830381865afa158015610742573d6000803e3d6000fd5b505050506040513d601f19601f820116820180604052508101906107669190612dfa565b9050919050565b68056bc75e2d6310000081565b6000600160009054906101000a900473ffffffffffffffffffffffffffffffffffffffff1673ffffffffffffffffffffffffffffffffffffffff16630f53a470336040518263ffffffff1660e01b81526004016107d791906126a5565b600060405180830381865afa1580156107f4573d6000803e3d6000fd5b505050506040513d6000823e3d601f19601f8201168201806040525081019061081d9190612f29565b9050600081600001515111610867576040517f08c379a000000000000000000000000000000000000000000000000000000000815260040161085e90612fbe565b60405180910390fd5b81600460008573ffffffffffffffffffffffffffffffffffffffff1673ffffffffffffffffffffffffffffffffffffffff16815260200190815260200160002083815481106108b9576108b8612fde565b5b9060005260206000209060060201600001541461090b576040517f08c379a000000000000000000000000000000000000000000000000000000000815260040161090290613059565b60405180910390fd5b6109fb600460008573ffffffffffffffffffffffffffffffffffffffff1673ffffffffffffffffffffffffffffffffffffffff168152602001908152602001600020838154811061095f5761095e612fde565b5b90600052602060002090600602016005018054806020026020016040519081016040528092919081815260200182805480156109f057602002820191906000526020600020905b8160009054906101000a900473ffffffffffffffffffffffffffffffffffffffff1673ffffffffffffffffffffffffffffffffffffffff16815260200190600101908083116109a6575b5050505050336121c9565b15610a3b576040517f08c379a0000000000000000000000000000000000000000000000000000000008152600401610a32906130c5565b60405180910390fd5b600460008473ffffffffffffffffffffffffffffffffffffffff1673ffffffffffffffffffffffffffffffffffffffff1681526020019081526020016000208281548110610a8c57610a8b612fde565b5b9060005260206000209060060201600501339080600181540180825580915050600190039060005260206000200160009091909190916101000a81548173ffffffffffffffffffffffffffffffffffffffff021916908373ffffffffffffffffffffffffffffffffffffffff160217905550600460008473ffffffffffffffffffffffffffffffffffffffff1673ffffffffffffffffffffffffffffffffffffffff1681526020019081526020016000208281548110610b4f57610b4e612fde565b5b9060005260206000209060060201600401600081819054906101000a900467ffffffffffffffff1680929190610b8490613114565b91906101000a81548167ffffffffffffffff021916908367ffffffffffffffff16021790555050600260009054906101000a900473ffffffffffffffffffffffffffffffffffffffff1673ffffffffffffffffffffffffffffffffffffffff1663a9059cbb84670de0b6b3a76400006040518363ffffffff1660e01b8152600401610c10929190612ceb565b6020604051808303816000875af1158015610c2f573d6000803e3d6000fd5b505050506040513d601f19601f82011682018060405250810190610c539190612d4c565b610c92576040517f08c379a0000000000000000000000000000000000000000000000000000000008152600401610c8990613190565b60405180910390fd5b7ffb3b559a7f5c60ad634e9148f82e72312fa85775f2bddd6a119c057f21ed4fba600460008573ffffffffffffffffffffffffffffffffffffffff1673ffffffffffffffffffffffffffffffffffffffff1681526020019081526020016000208381548110610d0457610d03612fde565b5b906000526020600020906006020160050133600460008773ffffffffffffffffffffffffffffffffffffffff1673ffffffffffffffffffffffffffffffffffffffff1681526020019081526020016000208581548110610d6757610d66612fde565b5b906000526020600020906006020160040160009054906101000a900467ffffffffffffffff1685604051610d9e949392919061329c565b60405180910390a18273ffffffffffffffffffffffffffffffffffffffff167f40b85519482e96a0bb618ba3b2c0f89aebbfe7718f33f00955fa76b884c4f908670de0b6b3a7640000604051610df4919061268a565b60405180910390a2505050565b60008060005b600460008573ffffffffffffffffffffffffffffffffffffffff1673ffffffffffffffffffffffffffffffffffffffff16815260200190815260200160002080549050811015610ef257600460008573ffffffffffffffffffffffffffffffffffffffff1673ffffffffffffffffffffffffffffffffffffffff1681526020019081526020016000208181548110610ea257610ea1612fde565b5b906000526020600020906006020160040160009054906101000a900467ffffffffffffffff1667ffffffffffffffff1682610edd91906132e8565b91508080610eea9061331c565b915050610e07565b5080915050919050565b600360009054906101000a900473ffffffffffffffffffffffffffffffffffffffff1681565b610f2a612250565b610f3460006122d7565b565b600260009054906101000a900473ffffffffffffffffffffffffffffffffffffffff1681565b60008060009054906101000a900473ffffffffffffffffffffffffffffffffffffffff16905090565b610f8d612250565b600073ffffffffffffffffffffffffffffffffffffffff168173ffffffffffffffffffffffffffffffffffffffff1603610ffc576040517f08c379a0000000000000000000000000000000000000000000000000000000008152600401610ff3906133b0565b60405180910390fd5b80600160006101000a81548173ffffffffffffffffffffffffffffffffffffffff021916908373ffffffffffffffffffffffffffffffffffffffff16021790555080600360006101000a81548173ffffffffffffffffffffffffffffffffffffffff021916908373ffffffffffffffffffffffffffffffffffffffff1602179055507f6be31def80fead27f252e335b931be1c9dc25eaa631284e5049178268592152a816040516110ad91906126a5565b60405180910390a150565b6000600160009054906101000a900473ffffffffffffffffffffffffffffffffffffffff1673ffffffffffffffffffffffffffffffffffffffff16630f53a470336040518263ffffffff1660e01b815260040161111591906126a5565b600060405180830381865afa158015611132573d6000803e3d6000fd5b505050506040513d6000823e3d601f19601f8201168201806040525081019061115b9190612f29565b90506000816000015151116111a5576040517f08c379a000000000000000000000000000000000000000000000000000000000815260040161119c90612fbe565b60405180910390fd5b610118825111156111eb576040517f08c379a00000000000000000000000000000000000000000000000000000000081526004016111e29061341c565b60405180910390fd5b600260009054906101000a900473ffffffffffffffffffffffffffffffffffffffff1673ffffffffffffffffffffffffffffffffffffffff166323b872dd3330674563918244f400006040518463ffffffff1660e01b81526004016112529392919061343c565b6020604051808303816000875af1158015611271573d6000803e3d6000fd5b505050506040513d601f19601f820116820180604052508101906112959190612d4c565b6112d4576040517f08c379a00000000000000000000000000000000000000000000000000000000081526004016112cb906134e5565b60405180910390fd5b60006040518060c00160405280600460003373ffffffffffffffffffffffffffffffffffffffff1673ffffffffffffffffffffffffffffffffffffffff1681526020019081526020016000208054905081526020013373ffffffffffffffffffffffffffffffffffffffff168152602001848152602001428152602001600067ffffffffffffffff168152602001600067ffffffffffffffff81111561137d5761137c612744565b5b6040519080825280602002602001820160405280156113ab5781602001602082028036833780820191505090505b508152509050600460003373ffffffffffffffffffffffffffffffffffffffff1673ffffffffffffffffffffffffffffffffffffffff1681526020019081526020016000208190806001815401808255809150506001900390600052602060002090600602016000909190919091506000820151816000015560208201518160010160006101000a81548173ffffffffffffffffffffffffffffffffffffffff021916908373ffffffffffffffffffffffffffffffffffffffff160217905550604082015181600201908161148091906136a7565b506060820151816003015560808201518160040160006101000a81548167ffffffffffffffff021916908367ffffffffffffffff16021790555060a08201518160050190805190602001906114d69291906123a3565b505050806020015173ffffffffffffffffffffffffffffffffffffffff167f0b1c7d16487c44185fadbe08b54bc1ff08651d7d0244a764d90f75912af906c882600001518360400151846060015160405161153393929190613779565b60405180910390a23373ffffffffffffffffffffffffffffffffffffffff167f8f8841646308712906e60cca9f208ef458555b6db737012a999bf87386d8c8b2674563918244f40000604051611589919061268a565b60405180910390a2505050565b6000600160009054906101000a900473ffffffffffffffffffffffffffffffffffffffff1673ffffffffffffffffffffffffffffffffffffffff16630f53a470336040518263ffffffff1660e01b81526004016115f391906126a5565b600060405180830381865afa158015611610573d6000803e3d6000fd5b505050506040513d6000823e3d601f19601f820116820180604052508101906116399190612f29565b9050600081600001515111611683576040517f08c379a000000000000000000000000000000000000000000000000000000000815260040161167a90612fbe565b60405180910390fd5b81600460008573ffffffffffffffffffffffffffffffffffffffff1673ffffffffffffffffffffffffffffffffffffffff16815260200190815260200160002083815481106116d5576116d4612fde565b5b90600052602060002090600602016000015414611727576040517f08c379a000000000000000000000000000000000000000000000000000000000815260040161171e90613803565b60405180910390fd5b6000600460008573ffffffffffffffffffffffffffffffffffffffff1673ffffffffffffffffffffffffffffffffffffffff168152602001908152602001600020838154811061177a57611779612fde565b5b906000526020600020906006020160040160009054906101000a900467ffffffffffffffff1667ffffffffffffffff16116117ea576040517f08c379a00000000000000000000000000000000000000000000000000000000081526004016117e19061386f565b60405180910390fd5b6118da600460008573ffffffffffffffffffffffffffffffffffffffff1673ffffffffffffffffffffffffffffffffffffffff168152602001908152602001600020838154811061183e5761183d612fde565b5b90600052602060002090600602016005018054806020026020016040519081016040528092919081815260200182805480156118cf57602002820191906000526020600020905b8160009054906101000a900473ffffffffffffffffffffffffffffffffffffffff1673ffffffffffffffffffffffffffffffffffffffff1681526020019060010190808311611885575b5050505050336121c9565b611919576040517f08c379a0000000000000000000000000000000000000000000000000000000008152600401611910906138db565b60405180910390fd5b60005b600460008573ffffffffffffffffffffffffffffffffffffffff1673ffffffffffffffffffffffffffffffffffffffff168152602001908152602001600020838154811061196d5761196c612fde565b5b906000526020600020906006020160050180549050811015611dc0573373ffffffffffffffffffffffffffffffffffffffff16600460008673ffffffffffffffffffffffffffffffffffffffff1673ffffffffffffffffffffffffffffffffffffffff16815260200190815260200160002084815481106119f1576119f0612fde565b5b90600052602060002090600602016005018281548110611a1457611a13612fde565b5b9060005260206000200160009054906101000a900473ffffffffffffffffffffffffffffffffffffffff1673ffffffffffffffffffffffffffffffffffffffff1603611dad5760008190505b6001600460008773ffffffffffffffffffffffffffffffffffffffff1673ffffffffffffffffffffffffffffffffffffffff1681526020019081526020016000208581548110611ab357611ab2612fde565b5b906000526020600020906006020160050180549050611ad291906138fb565b811015611c5357600460008673ffffffffffffffffffffffffffffffffffffffff1673ffffffffffffffffffffffffffffffffffffffff1681526020019081526020016000208481548110611b2a57611b29612fde565b5b9060005260206000209060060201600501600182611b4891906132e8565b81548110611b5957611b58612fde565b5b9060005260206000200160009054906101000a900473ffffffffffffffffffffffffffffffffffffffff16600460008773ffffffffffffffffffffffffffffffffffffffff1673ffffffffffffffffffffffffffffffffffffffff1681526020019081526020016000208581548110611bd557611bd4612fde565b5b90600052602060002090600602016005018281548110611bf857611bf7612fde565b5b9060005260206000200160006101000a81548173ffffffffffffffffffffffffffffffffffffffff021916908373ffffffffffffffffffffffffffffffffffffffff1602179055508080611c4b9061331c565b915050611a60565b50600460008573ffffffffffffffffffffffffffffffffffffffff1673ffffffffffffffffffffffffffffffffffffffff1681526020019081526020016000208381548110611ca557611ca4612fde565b5b9060005260206000209060060201600501805480611cc657611cc561392f565b5b6001900381819060005260206000200160006101000a81549073ffffffffffffffffffffffffffffffffffffffff02191690559055600460008573ffffffffffffffffffffffffffffffffffffffff1673ffffffffffffffffffffffffffffffffffffffff1681526020019081526020016000208381548110611d4c57611d4b612fde565b5b9060005260206000209060060201600401600081819054906101000a900467ffffffffffffffff1680929190611d819061395e565b91906101000a81548167ffffffffffffffff021916908367ffffffffffffffff16021790555050611dc0565b8080611db89061331c565b91505061191c565b50505050565b600160009054906101000a900473ffffffffffffffffffffffffffffffffffffffff1681565b6060600460008373ffffffffffffffffffffffffffffffffffffffff1673ffffffffffffffffffffffffffffffffffffffff168152602001908152602001600020805480602002602001604051908101604052809291908181526020016000905b8282101561203b57838290600052602060002090600602016040518060c0016040529081600082015481526020016001820160009054906101000a900473ffffffffffffffffffffffffffffffffffffffff1673ffffffffffffffffffffffffffffffffffffffff1673ffffffffffffffffffffffffffffffffffffffff168152602001600282018054611ee090612c4e565b80601f0160208091040260200160405190810160405280929190818152602001828054611f0c90612c4e565b8015611f595780601f10611f2e57610100808354040283529160200191611f59565b820191906000526020600020905b815481529060010190602001808311611f3c57829003601f168201915b50505050508152602001600382015481526020016004820160009054906101000a900467ffffffffffffffff1667ffffffffffffffff1667ffffffffffffffff1681526020016005820180548060200260200160405190810160405280929190818152602001828054801561202357602002820191906000526020600020905b8160009054906101000a900473ffffffffffffffffffffffffffffffffffffffff1673ffffffffffffffffffffffffffffffffffffffff1681526020019060010190808311611fd9575b50505050508152505081526020019060010190611e4d565b505050509050919050565b6060600460008473ffffffffffffffffffffffffffffffffffffffff1673ffffffffffffffffffffffffffffffffffffffff168152602001908152602001600020828154811061209957612098612fde565b5b906000526020600020906006020160050180548060200260200160405190810160405280929190818152602001828054801561212a57602002820191906000526020600020905b8160009054906101000a900473ffffffffffffffffffffffffffffffffffffffff1673ffffffffffffffffffffffffffffffffffffffff16815260200190600101908083116120e0575b5050505050905092915050565b670de0b6b3a764000081565b61214b612250565b600073ffffffffffffffffffffffffffffffffffffffff168173ffffffffffffffffffffffffffffffffffffffff16036121bd5760006040517f1e4fbdf70000000000000000000000000000000000000000000000000000000081526004016121b491906126a5565b60405180910390fd5b6121c6816122d7565b50565b600080600090505b8351811015612244578273ffffffffffffffffffffffffffffffffffffffff1684828151811061220457612203612fde565b5b602002602001015173ffffffffffffffffffffffffffffffffffffffff160361223157600191505061224a565b808061223c9061331c565b9150506121d1565b50600090505b92915050565b61225861239b565b73ffffffffffffffffffffffffffffffffffffffff16612276610f5c565b73ffffffffffffffffffffffffffffffffffffffff16146122d55761229961239b565b6040517f118cdaa70000000000000000000000000000000000000000000000000000000081526004016122cc91906126a5565b60405180910390fd5b565b60008060009054906101000a900473ffffffffffffffffffffffffffffffffffffffff169050816000806101000a81548173ffffffffffffffffffffffffffffffffffffffff021916908373ffffffffffffffffffffffffffffffffffffffff1602179055508173ffffffffffffffffffffffffffffffffffffffff168173ffffffffffffffffffffffffffffffffffffffff167f8be0079c531659141344cd1fd0a4f28419497f9722a3daafe3b4186f6b6457e060405160405180910390a35050565b600033905090565b82805482825590600052602060002090810192821561241c579160200282015b8281111561241b5782518260006101000a81548173ffffffffffffffffffffffffffffffffffffffff021916908373ffffffffffffffffffffffffffffffffffffffff160217905550916020019190600101906123c3565b5b509050612429919061242d565b5090565b5b8082111561244657600081600090555060010161242e565b5090565b6000604051905090565b600080fd5b600080fd5b600073ffffffffffffffffffffffffffffffffffffffff82169050919050565b60006124898261245e565b9050919050565b6124998161247e565b81146124a457600080fd5b50565b6000813590506124b681612490565b92915050565b6000819050919050565b6124cf816124bc565b81146124da57600080fd5b50565b6000813590506124ec816124c6565b92915050565b6000806040838503121561250957612508612454565b5b6000612517858286016124a7565b9250506020612528858286016124dd565b9150509250929050565b61253b816124bc565b82525050565b61254a8161247e565b82525050565b600081519050919050565b600082825260208201905092915050565b60005b8381101561258a57808201518184015260208101905061256f565b60008484015250505050565b6000601f19601f8301169050919050565b60006125b282612550565b6125bc818561255b565b93506125cc81856020860161256c565b6125d581612596565b840191505092915050565b600067ffffffffffffffff82169050919050565b6125fd816125e0565b82525050565b600060a0820190506126186000830188612532565b6126256020830187612541565b818103604083015261263781866125a7565b90506126466060830185612532565b61265360808301846125f4565b9695505050505050565b60006020828403121561267357612672612454565b5b6000612681848285016124a7565b91505092915050565b600060208201905061269f6000830184612532565b92915050565b60006020820190506126ba6000830184612541565b92915050565b6000819050919050565b60006126e56126e06126db8461245e565b6126c0565b61245e565b9050919050565b60006126f7826126ca565b9050919050565b6000612709826126ec565b9050919050565b612719816126fe565b82525050565b60006020820190506127346000830184612710565b92915050565b600080fd5b600080fd5b7f4e487b7100000000000000000000000000000000000000000000000000000000600052604160045260246000fd5b61277c82612596565b810181811067ffffffffffffffff8211171561279b5761279a612744565b5b80604052505050565b60006127ae61244a565b90506127ba8282612773565b919050565b600067ffffffffffffffff8211156127da576127d9612744565b5b6127e382612596565b9050602081019050919050565b82818337600083830152505050565b600061281261280d846127bf565b6127a4565b90508281526020810184848401111561282e5761282d61273f565b5b6128398482856127f0565b509392505050565b600082601f8301126128565761285561273a565b5b81356128668482602086016127ff565b91505092915050565b60006020828403121561288557612884612454565b5b600082013567ffffffffffffffff8111156128a3576128a2612459565b5b6128af84828501612841565b91505092915050565b60006128c3826126ec565b9050919050565b6128d3816128b8565b82525050565b60006020820190506128ee60008301846128ca565b92915050565b600081519050919050565b600082825260208201905092915050565b6000819050602082019050919050565b612929816124bc565b82525050565b6129388161247e565b82525050565b600082825260208201905092915050565b600061295a82612550565b612964818561293e565b935061297481856020860161256c565b61297d81612596565b840191505092915050565b612991816125e0565b82525050565b600081519050919050565b600082825260208201905092915050565b6000819050602082019050919050565b60006129cf838361292f565b60208301905092915050565b6000602082019050919050565b60006129f382612997565b6129fd81856129a2565b9350612a08836129b3565b8060005b83811015612a39578151612a2088826129c3565b9750612a2b836129db565b925050600181019050612a0c565b5085935050505092915050565b600060c083016000830151612a5e6000860182612920565b506020830151612a71602086018261292f565b5060408301518482036040860152612a89828261294f565b9150506060830151612a9e6060860182612920565b506080830151612ab16080860182612988565b5060a083015184820360a0860152612ac982826129e8565b9150508091505092915050565b6000612ae28383612a46565b905092915050565b6000602082019050919050565b6000612b02826128f4565b612b0c81856128ff565b935083602082028501612b1e85612910565b8060005b85811015612b5a5784840389528151612b3b8582612ad6565b9450612b4683612aea565b925060208a01995050600181019050612b22565b50829750879550505050505092915050565b60006020820190508181036000830152612b868184612af7565b905092915050565b600082825260208201905092915050565b6000612baa82612997565b612bb48185612b8e565b9350612bbf836129b3565b8060005b83811015612bf0578151612bd788826129c3565b9750612be2836129db565b925050600181019050612bc3565b5085935050505092915050565b60006020820190508181036000830152612c178184612b9f565b905092915050565b7f4e487b7100000000000000000000000000000000000000000000000000000000600052602260045260246000fd5b60006002820490506001821680612c6657607f821691505b602082108103612c7957612c78612c1f565b5b50919050565b7f4e6f74206f776e6572206f722050726f66696c65000000000000000000000000600082015250565b6000612cb560148361255b565b9150612cc082612c7f565b602082019050919050565b60006020820190508181036000830152612ce481612ca8565b9050919050565b6000604082019050612d006000830185612541565b612d0d6020830184612532565b9392505050565b60008115159050919050565b612d2981612d14565b8114612d3457600080fd5b50565b600081519050612d4681612d20565b92915050565b600060208284031215612d6257612d61612454565b5b6000612d7084828501612d37565b91505092915050565b7f546f6b656e207472616e73666572206661696c65640000000000000000000000600082015250565b6000612daf60158361255b565b9150612dba82612d79565b602082019050919050565b60006020820190508181036000830152612dde81612da2565b9050919050565b600081519050612df4816124c6565b92915050565b600060208284031215612e1057612e0f612454565b5b6000612e1e84828501612de5565b91505092915050565b600080fd5b600080fd5b6000612e44612e3f846127bf565b6127a4565b905082815260208101848484011115612e6057612e5f61273f565b5b612e6b84828561256c565b509392505050565b600082601f830112612e8857612e8761273a565b5b8151612e98848260208601612e31565b91505092915050565b600060408284031215612eb757612eb6612e27565b5b612ec160406127a4565b9050600082015167ffffffffffffffff811115612ee157612ee0612e2c565b5b612eed84828501612e73565b600083015250602082015167ffffffffffffffff811115612f1157612f10612e2c565b5b612f1d84828501612e73565b60208301525092915050565b600060208284031215612f3f57612f3e612454565b5b600082015167ffffffffffffffff811115612f5d57612f5c612459565b5b612f6984828501612ea1565b91505092915050565b7f55736572206973206e6f74207265676973746572656400000000000000000000600082015250565b6000612fa860168361255b565b9150612fb382612f72565b602082019050919050565b60006020820190508181036000830152612fd781612f9b565b9050919050565b7f4e487b7100000000000000000000000000000000000000000000000000000000600052603260045260246000fd5b7f547765657420646f6573206e6f74206578697374000000000000000000000000600082015250565b600061304360148361255b565b915061304e8261300d565b602082019050919050565b6000602082019050818103600083015261307281613036565b9050919050565b7f416c7265616479206c696b656400000000000000000000000000000000000000600082015250565b60006130af600d8361255b565b91506130ba82613079565b602082019050919050565b600060208201905081810360008301526130de816130a2565b9050919050565b7f4e487b7100000000000000000000000000000000000000000000000000000000600052601160045260246000fd5b600061311f826125e0565b915067ffffffffffffffff8203613139576131386130e5565b5b600182019050919050565b7f546f6b656e207472616e7366657220746f20617574686f72206661696c656400600082015250565b600061317a601f8361255b565b915061318582613144565b602082019050919050565b600060208201905081810360008301526131a98161316d565b9050919050565b600081549050919050565b60008190508160005260206000209050919050565b60008160001c9050919050565b600073ffffffffffffffffffffffffffffffffffffffff82169050919050565b600061321061320b836131d0565b6131dd565b9050919050565b600061322382546131fd565b9050919050565b6000600182019050919050565b6000613242826131b0565b61324c8185612b8e565b9350613257836131bb565b8060005b8381101561328f5761326c82613217565b61327688826129c3565b97506132818361322a565b92505060018101905061325b565b5085935050505092915050565b600060808201905081810360008301526132b68187613237565b90506132c56020830186612541565b6132d260408301856125f4565b6132df6060830184612532565b95945050505050565b60006132f3826124bc565b91506132fe836124bc565b9250828201905080821115613316576133156130e5565b5b92915050565b6000613327826124bc565b91507fffffffffffffffffffffffffffffffffffffffffffffffffffffffffffffffff8203613359576133586130e5565b5b600182019050919050565b7f496e76616c696420616464726573730000000000000000000000000000000000600082015250565b600061339a600f8361255b565b91506133a582613364565b602082019050919050565b600060208201905081810360008301526133c98161338d565b9050919050565b7f547765657420697320746f6f204c4f4f4f4e4700000000000000000000000000600082015250565b600061340660138361255b565b9150613411826133d0565b602082019050919050565b60006020820190508181036000830152613435816133f9565b9050919050565b60006060820190506134516000830186612541565b61345e6020830185612541565b61346b6040830184612532565b949350505050565b7f496e73756666696369656e7420746f6b656e73206f7220617070726f76616c2060008201527f666f7220706f7374696e67000000000000000000000000000000000000000000602082015250565b60006134cf602b8361255b565b91506134da82613473565b604082019050919050565b600060208201905081810360008301526134fe816134c2565b9050919050565b60008190508160005260206000209050919050565b60006020601f8301049050919050565b600082821b905092915050565b6000600883026135677fffffffffffffffffffffffffffffffffffffffffffffffffffffffffffffffff8261352a565b613571868361352a565b95508019841693508086168417925050509392505050565b60006135a461359f61359a846124bc565b6126c0565b6124bc565b9050919050565b6000819050919050565b6135be83613589565b6135d26135ca826135ab565b848454613537565b825550505050565b600090565b6135e76135da565b6135f28184846135b5565b505050565b5b818110156136165761360b6000826135df565b6001810190506135f8565b5050565b601f82111561365b5761362c81613505565b6136358461351a565b81016020851015613644578190505b6136586136508561351a565b8301826135f7565b50505b505050565b600082821c905092915050565b600061367e60001984600802613660565b1980831691505092915050565b6000613697838361366d565b9150826002028217905092915050565b6136b082612550565b67ffffffffffffffff8111156136c9576136c8612744565b5b6136d38254612c4e565b6136de82828561361a565b600060209050601f83116001811461371157600084156136ff578287015190505b613709858261368b565b865550613771565b601f19841661371f86613505565b60005b8281101561374757848901518255600182019150602085019450602081019050613722565b868310156137645784890151613760601f89168261366d565b8355505b6001600288020188555050505b505050505050565b600060608201905061378e6000830186612532565b81810360208301526137a081856125a7565b90506137af6040830184612532565b949350505050565b7f7477656574206e6f742065786973747300000000000000000000000000000000600082015250565b60006137ed60108361255b565b91506137f8826137b7565b602082019050919050565b6000602082019050818103600083015261381c816137e0565b9050919050565b7f747765657420686173206e6f206c696b65730000000000000000000000000000600082015250565b600061385960128361255b565b915061386482613823565b602082019050919050565b600060208201905081810360008301526138888161384c565b9050919050565b7f796f75206469646e2774206c696b656400000000000000000000000000000000600082015250565b60006138c560108361255b565b91506138d08261388f565b602082019050919050565b600060208201905081810360008301526138f4816138b8565b9050919050565b6000613906826124bc565b9150613911836124bc565b9250828203905081811115613929576139286130e5565b5b92915050565b7f4e487b7100000000000000000000000000000000000000000000000000000000600052603160045260246000fd5b6000613969826125e0565b91506000820361397c5761397b6130e5565b5b60018203905091905056fea2646970667358221220d20ee307817b5aeec6652f8ed69bc6dce896fd88128a46a6ba2f2c50a578f0b464736f6c63430008140033",
  "linkReferences": {},
  "deployedLinkReferences": {}
}