{
  "_format": "hh-sol-artifact-1",
  "contractName": "XCrypto",
  "sourceName": "contracts/XCrypto.sol",
  "abi": [
    {
      "inputs": [
        {
          "internalType": "address",
          "name": "_profileContract",
          "type": "address"
        },
        {
          "internalType": "address",
          "name": "_tokenContract",
          "type": "address"
        }
      ],
      "stateMutability": "nonpayable",
      "type": "constructor"
    },
    {
      "inputs": [
        {
          "internalType": "address",
          "name": "owner",
          "type": "address"
        }
      ],
      "name": "OwnableInvalidOwner",
      "type": "error"
    },
    {
      "inputs": [
        {
          "internalType": "address",
          "name": "account",
          "type": "address"
        }
      ],
      "name": "OwnableUnauthorizedAccount",
      "type": "error"
    },
    {
      "anonymous": false,
      "inputs": [
        {
          "indexed": true,
          "internalType": "address",
          "name": "author",
          "type": "address"
        },
        {
          "indexed": false,
          "internalType": "uint256",
          "name": "amount",
          "type": "uint256"
        }
      ],
      "name": "LikeReward",
      "type": "event"
    },
    {
      "anonymous": false,
      "inputs": [
        {
          "indexed": false,
          "internalType": "uint256",
          "name": "id",
          "type": "uint256"
        },
        {
          "indexed": true,
          "internalType": "address",
          "name": "author",
          "type": "address"
        },
        {
          "indexed": false,
          "internalType": "string",
          "name": "text",
          "type": "string"
        },
        {
          "indexed": false,
          "internalType": "uint256",
          "name": "time",
          "type": "uint256"
        }
      ],
      "name": "NewTweet",
      "type": "event"
    },
    {
      "anonymous": false,
      "inputs": [
        {
          "indexed": true,
          "internalType": "address",
          "name": "previousOwner",
          "type": "address"
        },
        {
          "indexed": true,
          "internalType": "address",
          "name": "newOwner",
          "type": "address"
        }
      ],
      "name": "OwnershipTransferred",
      "type": "event"
    },
    {
      "anonymous": false,
      "inputs": [
        {
          "indexed": true,
          "internalType": "address",
          "name": "user",
          "type": "address"
        },
        {
          "indexed": false,
          "internalType": "uint256",
          "name": "amount",
          "type": "uint256"
        }
      ],
      "name": "PostDeduction",
      "type": "event"
    },
    {
      "anonymous": false,
      "inputs": [
        {
          "indexed": false,
          "internalType": "address",
          "name": "newProfileContract",
          "type": "address"
        }
      ],
      "name": "ProfileContractUpdated",
      "type": "event"
    },
    {
      "anonymous": false,
      "inputs": [
        {
          "indexed": true,
          "internalType": "address",
          "name": "user",
          "type": "address"
        },
        {
          "indexed": false,
          "internalType": "uint256",
          "name": "amount",
          "type": "uint256"
        }
      ],
      "name": "ProfileReward",
      "type": "event"
    },
    {
      "anonymous": false,
      "inputs": [
        {
          "indexed": false,
          "internalType": "address[]",
          "name": "likers",
          "type": "address[]"
        },
        {
          "indexed": false,
          "internalType": "address",
          "name": "currentLiker",
          "type": "address"
        },
        {
          "indexed": false,
          "internalType": "uint64",
          "name": "like",
          "type": "uint64"
        },
        {
          "indexed": false,
          "internalType": "uint256",
          "name": "id",
          "type": "uint256"
        }
      ],
      "name": "TweetLiked",
      "type": "event"
    },
    {
      "inputs": [],
      "name": "DECIMALS",
      "outputs": [
        {
          "internalType": "uint256",
          "name": "",
          "type": "uint256"
        }
      ],
      "stateMutability": "view",
      "type": "function"
    },
    {
      "inputs": [],
      "name": "LIKE_REWARD",
      "outputs": [
        {
          "internalType": "uint256",
          "name": "",
          "type": "uint256"
        }
      ],
      "stateMutability": "view",
      "type": "function"
    },
    {
      "inputs": [],
      "name": "POST_COST",
      "outputs": [
        {
          "internalType": "uint256",
          "name": "",
          "type": "uint256"
        }
      ],
      "stateMutability": "view",
      "type": "function"
    },
    {
      "inputs": [],
      "name": "PROFILE_REWARD",
      "outputs": [
        {
          "internalType": "uint256",
          "name": "",
          "type": "uint256"
        }
      ],
      "stateMutability": "view",
      "type": "function"
    },
    {
      "inputs": [
        {
          "internalType": "uint256",
          "name": "",
          "type": "uint256"
        }
      ],
      "name": "allTweets",
      "outputs": [
        {
          "internalType": "uint256",
          "name": "id",
          "type": "uint256"
        },
        {
          "internalType": "address",
          "name": "author",
          "type": "address"
        },
        {
          "internalType": "string",
          "name": "text",
          "type": "string"
        },
        {
          "internalType": "uint256",
          "name": "time",
          "type": "uint256"
        },
        {
          "internalType": "uint64",
          "name": "like",
          "type": "uint64"
        }
      ],
      "stateMutability": "view",
      "type": "function"
    },
    {
      "inputs": [
        {
          "internalType": "address",
          "name": "_user",
          "type": "address"
        }
      ],
      "name": "getAllTweet",
      "outputs": [
        {
          "components": [
            {
              "internalType": "uint256",
              "name": "id",
              "type": "uint256"
            },
            {
              "internalType": "address",
              "name": "author",
              "type": "address"
            },
            {
              "internalType": "string",
              "name": "text",
              "type": "string"
            },
            {
              "internalType": "uint256",
              "name": "time",
              "type": "uint256"
            },
            {
              "internalType": "uint64",
              "name": "like",
              "type": "uint64"
            },
            {
              "internalType": "address[]",
              "name": "likers",
              "type": "address[]"
            }
          ],
          "internalType": "struct XCrypto.tweet[]",
          "name": "",
          "type": "tuple[]"
        }
      ],
      "stateMutability": "view",
      "type": "function"
    },
    {
      "inputs": [],
      "name": "getAllTweets",
      "outputs": [
        {
          "components": [
            {
              "internalType": "uint256",
              "name": "id",
              "type": "uint256"
            },
            {
              "internalType": "address",
              "name": "author",
              "type": "address"
            },
            {
              "internalType": "string",
              "name": "text",
              "type": "string"
            },
            {
              "internalType": "uint256",
              "name": "time",
              "type": "uint256"
            },
            {
              "internalType": "uint64",
              "name": "like",
              "type": "uint64"
            },
            {
              "internalType": "address[]",
              "name": "likers",
              "type": "address[]"
            }
          ],
          "internalType": "struct XCrypto.tweet[]",
          "name": "",
          "type": "tuple[]"
        }
      ],
      "stateMutability": "view",
      "type": "function"
    },
    {
      "inputs": [
        {
          "internalType": "address",
          "name": "_user",
          "type": "address"
        },
        {
          "internalType": "uint256",
          "name": "_index",
          "type": "uint256"
        }
      ],
      "name": "getSomething",
      "outputs": [
        {
          "internalType": "address[]",
          "name": "",
          "type": "address[]"
        }
      ],
      "stateMutability": "view",
      "type": "function"
    },
    {
      "inputs": [
        {
          "internalType": "address",
          "name": "_author",
          "type": "address"
        }
      ],
      "name": "getTotalUserLikes",
      "outputs": [
        {
          "internalType": "uint256",
          "name": "",
          "type": "uint256"
        }
      ],
      "stateMutability": "view",
      "type": "function"
    },
    {
      "inputs": [
        {
          "internalType": "address",
          "name": "_user",
          "type": "address"
        }
      ],
      "name": "getUserBalance",
      "outputs": [
        {
          "internalType": "uint256",
          "name": "",
          "type": "uint256"
        }
      ],
      "stateMutability": "view",
      "type": "function"
    },
    {
      "inputs": [
        {
          "internalType": "address",
          "name": "_author",
          "type": "address"
        },
        {
          "internalType": "uint256",
          "name": "_id",
          "type": "uint256"
        }
      ],
      "name": "likeTweet",
      "outputs": [],
      "stateMutability": "nonpayable",
      "type": "function"
    },
    {
      "inputs": [],
      "name": "owner",
      "outputs": [
        {
          "internalType": "address",
          "name": "",
          "type": "address"
        }
      ],
      "stateMutability": "view",
      "type": "function"
    },
    {
      "inputs": [
        {
          "internalType": "string",
          "name": "_tweet",
          "type": "string"
        }
      ],
      "name": "post",
      "outputs": [],
      "stateMutability": "nonpayable",
      "type": "function"
    },
    {
      "inputs": [],
      "name": "profileAddress",
      "outputs": [
        {
          "internalType": "address",
          "name": "",
          "type": "address"
        }
      ],
      "stateMutability": "view",
      "type": "function"
    },
    {
      "inputs": [],
      "name": "profileContract",
      "outputs": [
        {
          "internalType": "contract Iprofile",
          "name": "",
          "type": "address"
        }
      ],
      "stateMutability": "view",
      "type": "function"
    },
    {
      "inputs": [],
      "name": "renounceOwnership",
      "outputs": [],
      "stateMutability": "nonpayable",
      "type": "function"
    },
    {
      "inputs": [
        {
          "internalType": "address",
          "name": "_user",
          "type": "address"
        }
      ],
      "name": "rewardProfile",
      "outputs": [],
      "stateMutability": "nonpayable",
      "type": "function"
    },
    {
      "inputs": [
        {
          "internalType": "address",
          "name": "_profileContract",
          "type": "address"
        }
      ],
      "name": "setProfileContract",
      "outputs": [],
      "stateMutability": "nonpayable",
      "type": "function"
    },
    {
      "inputs": [
        {
          "internalType": "address",
          "name": "newOwner",
          "type": "address"
        }
      ],
      "name": "transferOwnership",
      "outputs": [],
      "stateMutability": "nonpayable",
      "type": "function"
    },
    {
      "inputs": [
        {
          "internalType": "address",
          "name": "",
          "type": "address"
        },
        {
          "internalType": "uint256",
          "name": "",
          "type": "uint256"
        }
      ],
      "name": "tweets",
      "outputs": [
        {
          "internalType": "uint256",
          "name": "id",
          "type": "uint256"
        },
        {
          "internalType": "address",
          "name": "author",
          "type": "address"
        },
        {
          "internalType": "string",
          "name": "text",
          "type": "string"
        },
        {
          "internalType": "uint256",
          "name": "time",
          "type": "uint256"
        },
        {
          "internalType": "uint64",
          "name": "like",
          "type": "uint64"
        }
      ],
      "stateMutability": "view",
      "type": "function"
    },
    {
      "inputs": [
        {
          "internalType": "address",
          "name": "_author",
          "type": "address"
        },
        {
          "internalType": "uint256",
          "name": "_id",
          "type": "uint256"
        }
      ],
      "name": "unLikeTweet",
      "outputs": [],
      "stateMutability": "nonpayable",
      "type": "function"
    },
    {
      "inputs": [],
      "name": "xCryptoToken",
      "outputs": [
        {
          "internalType": "contract IERC20",
          "name": "",
          "type": "address"
        }
      ],
      "stateMutability": "view",
      "type": "function"
    }
  ],
  "bytecode": "0x60806040523480156200001157600080fd5b506040516200441b3803806200441b8339818101604052810190620000379190620002b8565b33600073ffffffffffffffffffffffffffffffffffffffff168173ffffffffffffffffffffffffffffffffffffffff1603620000ad5760006040517f1e4fbdf7000000000000000000000000000000000000000000000000000000008152600401620000a4919062000310565b60405180910390fd5b620000be816200018a60201b60201c565b5081600160006101000a81548173ffffffffffffffffffffffffffffffffffffffff021916908373ffffffffffffffffffffffffffffffffffffffff16021790555080600260006101000a81548173ffffffffffffffffffffffffffffffffffffffff021916908373ffffffffffffffffffffffffffffffffffffffff16021790555081600360006101000a81548173ffffffffffffffffffffffffffffffffffffffff021916908373ffffffffffffffffffffffffffffffffffffffff16021790555050506200032d565b60008060009054906101000a900473ffffffffffffffffffffffffffffffffffffffff169050816000806101000a81548173ffffffffffffffffffffffffffffffffffffffff021916908373ffffffffffffffffffffffffffffffffffffffff1602179055508173ffffffffffffffffffffffffffffffffffffffff168173ffffffffffffffffffffffffffffffffffffffff167f8be0079c531659141344cd1fd0a4f28419497f9722a3daafe3b4186f6b6457e060405160405180910390a35050565b600080fd5b600073ffffffffffffffffffffffffffffffffffffffff82169050919050565b6000620002808262000253565b9050919050565b620002928162000273565b81146200029e57600080fd5b50565b600081519050620002b28162000287565b92915050565b60008060408385031215620002d257620002d16200024e565b5b6000620002e285828601620002a1565b9250506020620002f585828601620002a1565b9150509250929050565b6200030a8162000273565b82525050565b6000602082019050620003276000830184620002ff565b92915050565b6140de806200033d6000396000f3fe608060405234801561001057600080fd5b50600436106101425760003560e01c8063856f9eb6116100b8578063a3974b211161007c578063a3974b2114610343578063b64988b814610361578063d5026a8914610391578063e28350b7146103c1578063f0f8d4f1146103f5578063f2fde38b1461041357610142565b8063856f9eb6146102b35780638da5cb5b146102d15780638db8214e146102ef5780638ee93cf31461030b5780639ef8633f1461032757610142565b8063532561351161010a57806353256135146102035780635bd07ae514610221578063633782161461023f5780636b1cc2a91461025b5780636c167e031461028b578063715018a6146102a957610142565b806305a1b4a91461014757806321611e2f1461017b5780632e0f2625146101975780633eb83362146101b557806347734892146101d3575b600080fd5b610161600480360381019061015c9190612a26565b61042f565b604051610172959493929190612b37565b60405180910390f35b61019560048036038101906101909190612b91565b61053e565b005b61019f61076d565b6040516101ac9190612bbe565b60405180910390f35b6101bd610772565b6040516101ca9190612bbe565b60405180910390f35b6101ed60048036038101906101e89190612b91565b61078f565b6040516101fa9190612bbe565b60405180910390f35b61020b610834565b6040516102189190612e51565b60405180910390f35b610229610a4f565b6040516102369190612bbe565b60405180910390f35b61025960048036038101906102549190612a26565b610a6c565b005b61027560048036038101906102709190612b91565b611115565b6040516102829190612bbe565b60405180910390f35b610293611210565b6040516102a09190612e73565b60405180910390f35b6102b1611236565b005b6102bb61124a565b6040516102c89190612eed565b60405180910390f35b6102d9611270565b6040516102e69190612e73565b60405180910390f35b61030960048036038101906103049190612b91565b611299565b005b6103256004803603810190610320919061303d565b6113cc565b005b610341600480360381019061033c9190612a26565b6119b7565b005b61034b6121e7565b60405161035891906130a7565b60405180910390f35b61037b60048036038101906103769190612b91565b61220d565b6040516103889190612e51565b60405180910390f35b6103ab60048036038101906103a69190612a26565b612467565b6040516103b89190613131565b60405180910390f35b6103db60048036038101906103d69190613153565b612558565b6040516103ec959493929190612b37565b60405180910390f35b6103fd61265a565b60405161040a9190612bbe565b60405180910390f35b61042d60048036038101906104289190612b91565b612677565b005b6004602052816000526040600020818154811061044b57600080fd5b9060005260206000209060060201600091509150508060000154908060010160009054906101000a900473ffffffffffffffffffffffffffffffffffffffff169080600201805461049b906131af565b80601f01602080910402602001604051908101604052809291908181526020018280546104c7906131af565b80156105145780601f106104e957610100808354040283529160200191610514565b820191906000526020600020905b8154815290600101906020018083116104f757829003601f168201915b5050505050908060030154908060040160009054906101000a900467ffffffffffffffff16905085565b610546611270565b73ffffffffffffffffffffffffffffffffffffffff163373ffffffffffffffffffffffffffffffffffffffff1614806105cc5750600360009054906101000a900473ffffffffffffffffffffffffffffffffffffffff1673ffffffffffffffffffffffffffffffffffffffff163373ffffffffffffffffffffffffffffffffffffffff16145b61060b576040517f08c379a00000000000000000000000000000000000000000000000000000000081526004016106029061322c565b60405180910390fd5b600260009054906101000a900473ffffffffffffffffffffffffffffffffffffffff1673ffffffffffffffffffffffffffffffffffffffff1663a9059cbb826012600a61065891906133ae565b606461066491906133f9565b6040518363ffffffff1660e01b815260040161068192919061343b565b6020604051808303816000875af11580156106a0573d6000803e3d6000fd5b505050506040513d601f19601f820116820180604052508101906106c4919061349c565b610703576040517f08c379a00000000000000000000000000000000000000000000000000000000081526004016106fa90613515565b60405180910390fd5b8073ffffffffffffffffffffffffffffffffffffffff167f675e6202c559e70892407b9eb6d7e04cd70b7a59da918e361a2c7d129a36a9396012600a61074991906133ae565b606461075591906133f9565b6040516107629190612bbe565b60405180910390a250565b601281565b6012600a61078091906133ae565b600561078c91906133f9565b81565b6000600260009054906101000a900473ffffffffffffffffffffffffffffffffffffffff1673ffffffffffffffffffffffffffffffffffffffff166370a08231836040518263ffffffff1660e01b81526004016107ec9190612e73565b602060405180830381865afa158015610809573d6000803e3d6000fd5b505050506040513d601f19601f8201168201806040525081019061082d919061354a565b9050919050565b60606005805480602002602001604051908101604052809291908181526020016000905b82821015610a4657838290600052602060002090600602016040518060c0016040529081600082015481526020016001820160009054906101000a900473ffffffffffffffffffffffffffffffffffffffff1673ffffffffffffffffffffffffffffffffffffffff1673ffffffffffffffffffffffffffffffffffffffff1681526020016002820180546108eb906131af565b80601f0160208091040260200160405190810160405280929190818152602001828054610917906131af565b80156109645780601f1061093957610100808354040283529160200191610964565b820191906000526020600020905b81548152906001019060200180831161094757829003601f168201915b50505050508152602001600382015481526020016004820160009054906101000a900467ffffffffffffffff1667ffffffffffffffff1667ffffffffffffffff16815260200160058201805480602002602001604051908101604052809291908181526020018280548015610a2e57602002820191906000526020600020905b8160009054906101000a900473ffffffffffffffffffffffffffffffffffffffff1673ffffffffffffffffffffffffffffffffffffffff16815260200190600101908083116109e4575b50505050508152505081526020019060010190610858565b50505050905090565b6012600a610a5d91906133ae565b6064610a6991906133f9565b81565b6000600160009054906101000a900473ffffffffffffffffffffffffffffffffffffffff1673ffffffffffffffffffffffffffffffffffffffff16630f53a470336040518263ffffffff1660e01b8152600401610ac99190612e73565b600060405180830381865afa158015610ae6573d6000803e3d6000fd5b505050506040513d6000823e3d601f19601f82011682018060405250810190610b0f9190613679565b9050600081600001515111610b59576040517f08c379a0000000000000000000000000000000000000000000000000000000008152600401610b509061370e565b60405180910390fd5b81600460008573ffffffffffffffffffffffffffffffffffffffff1673ffffffffffffffffffffffffffffffffffffffff1681526020019081526020016000208381548110610bab57610baa61372e565b5b90600052602060002090600602016000015414610bfd576040517f08c379a0000000000000000000000000000000000000000000000000000000008152600401610bf4906137a9565b60405180910390fd5b610ced600460008573ffffffffffffffffffffffffffffffffffffffff1673ffffffffffffffffffffffffffffffffffffffff1681526020019081526020016000208381548110610c5157610c5061372e565b5b9060005260206000209060060201600501805480602002602001604051908101604052809291908181526020018280548015610ce257602002820191906000526020600020905b8160009054906101000a900473ffffffffffffffffffffffffffffffffffffffff1673ffffffffffffffffffffffffffffffffffffffff1681526020019060010190808311610c98575b5050505050336126fd565b15610d2d576040517f08c379a0000000000000000000000000000000000000000000000000000000008152600401610d2490613815565b60405180910390fd5b600460008473ffffffffffffffffffffffffffffffffffffffff1673ffffffffffffffffffffffffffffffffffffffff1681526020019081526020016000208281548110610d7e57610d7d61372e565b5b9060005260206000209060060201600501339080600181540180825580915050600190039060005260206000200160009091909190916101000a81548173ffffffffffffffffffffffffffffffffffffffff021916908373ffffffffffffffffffffffffffffffffffffffff160217905550600460008473ffffffffffffffffffffffffffffffffffffffff1673ffffffffffffffffffffffffffffffffffffffff1681526020019081526020016000208281548110610e4157610e4061372e565b5b9060005260206000209060060201600401600081819054906101000a900467ffffffffffffffff1680929190610e7690613835565b91906101000a81548167ffffffffffffffff021916908367ffffffffffffffff16021790555050600260009054906101000a900473ffffffffffffffffffffffffffffffffffffffff1673ffffffffffffffffffffffffffffffffffffffff1663a9059cbb846012600a610eea91906133ae565b6001610ef691906133f9565b6040518363ffffffff1660e01b8152600401610f1392919061343b565b6020604051808303816000875af1158015610f32573d6000803e3d6000fd5b505050506040513d601f19601f82011682018060405250810190610f56919061349c565b610f95576040517f08c379a0000000000000000000000000000000000000000000000000000000008152600401610f8c906138b1565b60405180910390fd5b7ffb3b559a7f5c60ad634e9148f82e72312fa85775f2bddd6a119c057f21ed4fba600460008573ffffffffffffffffffffffffffffffffffffffff1673ffffffffffffffffffffffffffffffffffffffff16815260200190815260200160002083815481106110075761100661372e565b5b906000526020600020906006020160050133600460008773ffffffffffffffffffffffffffffffffffffffff1673ffffffffffffffffffffffffffffffffffffffff168152602001908152602001600020858154811061106a5761106961372e565b5b906000526020600020906006020160040160009054906101000a900467ffffffffffffffff16856040516110a194939291906139bd565b60405180910390a18273ffffffffffffffffffffffffffffffffffffffff167f40b85519482e96a0bb618ba3b2c0f89aebbfe7718f33f00955fa76b884c4f9086012600a6110ef91906133ae565b60016110fb91906133f9565b6040516111089190612bbe565b60405180910390a2505050565b60008060005b600460008573ffffffffffffffffffffffffffffffffffffffff1673ffffffffffffffffffffffffffffffffffffffff1681526020019081526020016000208054905081101561120657600460008573ffffffffffffffffffffffffffffffffffffffff1673ffffffffffffffffffffffffffffffffffffffff16815260200190815260200160002081815481106111b6576111b561372e565b5b906000526020600020906006020160040160009054906101000a900467ffffffffffffffff1667ffffffffffffffff16826111f19190613a09565b915080806111fe90613a3d565b91505061111b565b5080915050919050565b600360009054906101000a900473ffffffffffffffffffffffffffffffffffffffff1681565b61123e612784565b611248600061280b565b565b600260009054906101000a900473ffffffffffffffffffffffffffffffffffffffff1681565b60008060009054906101000a900473ffffffffffffffffffffffffffffffffffffffff16905090565b6112a1612784565b600073ffffffffffffffffffffffffffffffffffffffff168173ffffffffffffffffffffffffffffffffffffffff1603611310576040517f08c379a000000000000000000000000000000000000000000000000000000000815260040161130790613ad1565b60405180910390fd5b80600160006101000a81548173ffffffffffffffffffffffffffffffffffffffff021916908373ffffffffffffffffffffffffffffffffffffffff16021790555080600360006101000a81548173ffffffffffffffffffffffffffffffffffffffff021916908373ffffffffffffffffffffffffffffffffffffffff1602179055507f6be31def80fead27f252e335b931be1c9dc25eaa631284e5049178268592152a816040516113c19190612e73565b60405180910390a150565b6000600160009054906101000a900473ffffffffffffffffffffffffffffffffffffffff1673ffffffffffffffffffffffffffffffffffffffff16630f53a470336040518263ffffffff1660e01b81526004016114299190612e73565b600060405180830381865afa158015611446573d6000803e3d6000fd5b505050506040513d6000823e3d601f19601f8201168201806040525081019061146f9190613679565b90506000816000015151116114b9576040517f08c379a00000000000000000000000000000000000000000000000000000000081526004016114b09061370e565b60405180910390fd5b610118825111156114ff576040517f08c379a00000000000000000000000000000000000000000000000000000000081526004016114f690613b3d565b60405180910390fd5b600260009054906101000a900473ffffffffffffffffffffffffffffffffffffffff1673ffffffffffffffffffffffffffffffffffffffff166323b872dd33306012600a61154d91906133ae565b600561155991906133f9565b6040518463ffffffff1660e01b815260040161157793929190613b5d565b6020604051808303816000875af1158015611596573d6000803e3d6000fd5b505050506040513d601f19601f820116820180604052508101906115ba919061349c565b6115f9576040517f08c379a00000000000000000000000000000000000000000000000000000000081526004016115f090613c06565b60405180910390fd5b60006040518060c00160405280600460003373ffffffffffffffffffffffffffffffffffffffff1673ffffffffffffffffffffffffffffffffffffffff1681526020019081526020016000208054905081526020013373ffffffffffffffffffffffffffffffffffffffff168152602001848152602001428152602001600067ffffffffffffffff168152602001600067ffffffffffffffff8111156116a2576116a1612f12565b5b6040519080825280602002602001820160405280156116d05781602001602082028036833780820191505090505b508152509050600460003373ffffffffffffffffffffffffffffffffffffffff1673ffffffffffffffffffffffffffffffffffffffff1681526020019081526020016000208190806001815401808255809150506001900390600052602060002090600602016000909190919091506000820151816000015560208201518160010160006101000a81548173ffffffffffffffffffffffffffffffffffffffff021916908373ffffffffffffffffffffffffffffffffffffffff16021790555060408201518160020190816117a59190613dc8565b506060820151816003015560808201518160040160006101000a81548167ffffffffffffffff021916908367ffffffffffffffff16021790555060a08201518160050190805190602001906117fb9291906128d7565b50505060058190806001815401808255809150506001900390600052602060002090600602016000909190919091506000820151816000015560208201518160010160006101000a81548173ffffffffffffffffffffffffffffffffffffffff021916908373ffffffffffffffffffffffffffffffffffffffff16021790555060408201518160020190816118909190613dc8565b506060820151816003015560808201518160040160006101000a81548167ffffffffffffffff021916908367ffffffffffffffff16021790555060a08201518160050190805190602001906118e69291906128d7565b505050806020015173ffffffffffffffffffffffffffffffffffffffff167f0b1c7d16487c44185fadbe08b54bc1ff08651d7d0244a764d90f75912af906c882600001518360400151846060015160405161194393929190613e9a565b60405180910390a23373ffffffffffffffffffffffffffffffffffffffff167f8f8841646308712906e60cca9f208ef458555b6db737012a999bf87386d8c8b26012600a61199191906133ae565b600561199d91906133f9565b6040516119aa9190612bbe565b60405180910390a2505050565b6000600160009054906101000a900473ffffffffffffffffffffffffffffffffffffffff1673ffffffffffffffffffffffffffffffffffffffff16630f53a470336040518263ffffffff1660e01b8152600401611a149190612e73565b600060405180830381865afa158015611a31573d6000803e3d6000fd5b505050506040513d6000823e3d601f19601f82011682018060405250810190611a5a9190613679565b9050600081600001515111611aa4576040517f08c379a0000000000000000000000000000000000000000000000000000000008152600401611a9b9061370e565b60405180910390fd5b81600460008573ffffffffffffffffffffffffffffffffffffffff1673ffffffffffffffffffffffffffffffffffffffff1681526020019081526020016000208381548110611af657611af561372e565b5b90600052602060002090600602016000015414611b48576040517f08c379a0000000000000000000000000000000000000000000000000000000008152600401611b3f90613f24565b60405180910390fd5b6000600460008573ffffffffffffffffffffffffffffffffffffffff1673ffffffffffffffffffffffffffffffffffffffff1681526020019081526020016000208381548110611b9b57611b9a61372e565b5b906000526020600020906006020160040160009054906101000a900467ffffffffffffffff1667ffffffffffffffff1611611c0b576040517f08c379a0000000000000000000000000000000000000000000000000000000008152600401611c0290613f90565b60405180910390fd5b611cfb600460008573ffffffffffffffffffffffffffffffffffffffff1673ffffffffffffffffffffffffffffffffffffffff1681526020019081526020016000208381548110611c5f57611c5e61372e565b5b9060005260206000209060060201600501805480602002602001604051908101604052809291908181526020018280548015611cf057602002820191906000526020600020905b8160009054906101000a900473ffffffffffffffffffffffffffffffffffffffff1673ffffffffffffffffffffffffffffffffffffffff1681526020019060010190808311611ca6575b5050505050336126fd565b611d3a576040517f08c379a0000000000000000000000000000000000000000000000000000000008152600401611d3190613ffc565b60405180910390fd5b60005b600460008573ffffffffffffffffffffffffffffffffffffffff1673ffffffffffffffffffffffffffffffffffffffff1681526020019081526020016000208381548110611d8e57611d8d61372e565b5b9060005260206000209060060201600501805490508110156121e1573373ffffffffffffffffffffffffffffffffffffffff16600460008673ffffffffffffffffffffffffffffffffffffffff1673ffffffffffffffffffffffffffffffffffffffff1681526020019081526020016000208481548110611e1257611e1161372e565b5b90600052602060002090600602016005018281548110611e3557611e3461372e565b5b9060005260206000200160009054906101000a900473ffffffffffffffffffffffffffffffffffffffff1673ffffffffffffffffffffffffffffffffffffffff16036121ce5760008190505b6001600460008773ffffffffffffffffffffffffffffffffffffffff1673ffffffffffffffffffffffffffffffffffffffff1681526020019081526020016000208581548110611ed457611ed361372e565b5b906000526020600020906006020160050180549050611ef3919061401c565b81101561207457600460008673ffffffffffffffffffffffffffffffffffffffff1673ffffffffffffffffffffffffffffffffffffffff1681526020019081526020016000208481548110611f4b57611f4a61372e565b5b9060005260206000209060060201600501600182611f699190613a09565b81548110611f7a57611f7961372e565b5b9060005260206000200160009054906101000a900473ffffffffffffffffffffffffffffffffffffffff16600460008773ffffffffffffffffffffffffffffffffffffffff1673ffffffffffffffffffffffffffffffffffffffff1681526020019081526020016000208581548110611ff657611ff561372e565b5b906000526020600020906006020160050182815481106120195761201861372e565b5b9060005260206000200160006101000a81548173ffffffffffffffffffffffffffffffffffffffff021916908373ffffffffffffffffffffffffffffffffffffffff160217905550808061206c90613a3d565b915050611e81565b50600460008573ffffffffffffffffffffffffffffffffffffffff1673ffffffffffffffffffffffffffffffffffffffff16815260200190815260200160002083815481106120c6576120c561372e565b5b90600052602060002090600602016005018054806120e7576120e6614050565b5b6001900381819060005260206000200160006101000a81549073ffffffffffffffffffffffffffffffffffffffff02191690559055600460008573ffffffffffffffffffffffffffffffffffffffff1673ffffffffffffffffffffffffffffffffffffffff168152602001908152602001600020838154811061216d5761216c61372e565b5b9060005260206000209060060201600401600081819054906101000a900467ffffffffffffffff16809291906121a29061407f565b91906101000a81548167ffffffffffffffff021916908367ffffffffffffffff160217905550506121e1565b80806121d990613a3d565b915050611d3d565b50505050565b600160009054906101000a900473ffffffffffffffffffffffffffffffffffffffff1681565b6060600460008373ffffffffffffffffffffffffffffffffffffffff1673ffffffffffffffffffffffffffffffffffffffff168152602001908152602001600020805480602002602001604051908101604052809291908181526020016000905b8282101561245c57838290600052602060002090600602016040518060c0016040529081600082015481526020016001820160009054906101000a900473ffffffffffffffffffffffffffffffffffffffff1673ffffffffffffffffffffffffffffffffffffffff1673ffffffffffffffffffffffffffffffffffffffff168152602001600282018054612301906131af565b80601f016020809104026020016040519081016040528092919081815260200182805461232d906131af565b801561237a5780601f1061234f5761010080835404028352916020019161237a565b820191906000526020600020905b81548152906001019060200180831161235d57829003601f168201915b50505050508152602001600382015481526020016004820160009054906101000a900467ffffffffffffffff1667ffffffffffffffff1667ffffffffffffffff1681526020016005820180548060200260200160405190810160405280929190818152602001828054801561244457602002820191906000526020600020905b8160009054906101000a900473ffffffffffffffffffffffffffffffffffffffff1673ffffffffffffffffffffffffffffffffffffffff16815260200190600101908083116123fa575b5050505050815250508152602001906001019061226e565b505050509050919050565b6060600460008473ffffffffffffffffffffffffffffffffffffffff1673ffffffffffffffffffffffffffffffffffffffff16815260200190815260200160002082815481106124ba576124b961372e565b5b906000526020600020906006020160050180548060200260200160405190810160405280929190818152602001828054801561254b57602002820191906000526020600020905b8160009054906101000a900473ffffffffffffffffffffffffffffffffffffffff1673ffffffffffffffffffffffffffffffffffffffff1681526020019060010190808311612501575b5050505050905092915050565b6005818154811061256857600080fd5b90600052602060002090600602016000915090508060000154908060010160009054906101000a900473ffffffffffffffffffffffffffffffffffffffff16908060020180546125b7906131af565b80601f01602080910402602001604051908101604052809291908181526020018280546125e3906131af565b80156126305780601f1061260557610100808354040283529160200191612630565b820191906000526020600020905b81548152906001019060200180831161261357829003601f168201915b5050505050908060030154908060040160009054906101000a900467ffffffffffffffff16905085565b6012600a61266891906133ae565b600161267491906133f9565b81565b61267f612784565b600073ffffffffffffffffffffffffffffffffffffffff168173ffffffffffffffffffffffffffffffffffffffff16036126f15760006040517f1e4fbdf70000000000000000000000000000000000000000000000000000000081526004016126e89190612e73565b60405180910390fd5b6126fa8161280b565b50565b600080600090505b8351811015612778578273ffffffffffffffffffffffffffffffffffffffff168482815181106127385761273761372e565b5b602002602001015173ffffffffffffffffffffffffffffffffffffffff160361276557600191505061277e565b808061277090613a3d565b915050612705565b50600090505b92915050565b61278c6128cf565b73ffffffffffffffffffffffffffffffffffffffff166127aa611270565b73ffffffffffffffffffffffffffffffffffffffff1614612809576127cd6128cf565b6040517f118cdaa70000000000000000000000000000000000000000000000000000000081526004016128009190612e73565b60405180910390fd5b565b60008060009054906101000a900473ffffffffffffffffffffffffffffffffffffffff169050816000806101000a81548173ffffffffffffffffffffffffffffffffffffffff021916908373ffffffffffffffffffffffffffffffffffffffff1602179055508173ffffffffffffffffffffffffffffffffffffffff168173ffffffffffffffffffffffffffffffffffffffff167f8be0079c531659141344cd1fd0a4f28419497f9722a3daafe3b4186f6b6457e060405160405180910390a35050565b600033905090565b828054828255906000526020600020908101928215612950579160200282015b8281111561294f5782518260006101000a81548173ffffffffffffffffffffffffffffffffffffffff021916908373ffffffffffffffffffffffffffffffffffffffff160217905550916020019190600101906128f7565b5b50905061295d9190612961565b5090565b5b8082111561297a576000816000905550600101612962565b5090565b6000604051905090565b600080fd5b600080fd5b600073ffffffffffffffffffffffffffffffffffffffff82169050919050565b60006129bd82612992565b9050919050565b6129cd816129b2565b81146129d857600080fd5b50565b6000813590506129ea816129c4565b92915050565b6000819050919050565b612a03816129f0565b8114612a0e57600080fd5b50565b600081359050612a20816129fa565b92915050565b60008060408385031215612a3d57612a3c612988565b5b6000612a4b858286016129db565b9250506020612a5c85828601612a11565b9150509250929050565b612a6f816129f0565b82525050565b612a7e816129b2565b82525050565b600081519050919050565b600082825260208201905092915050565b60005b83811015612abe578082015181840152602081019050612aa3565b60008484015250505050565b6000601f19601f8301169050919050565b6000612ae682612a84565b612af08185612a8f565b9350612b00818560208601612aa0565b612b0981612aca565b840191505092915050565b600067ffffffffffffffff82169050919050565b612b3181612b14565b82525050565b600060a082019050612b4c6000830188612a66565b612b596020830187612a75565b8181036040830152612b6b8186612adb565b9050612b7a6060830185612a66565b612b876080830184612b28565b9695505050505050565b600060208284031215612ba757612ba6612988565b5b6000612bb5848285016129db565b91505092915050565b6000602082019050612bd36000830184612a66565b92915050565b600081519050919050565b600082825260208201905092915050565b6000819050602082019050919050565b612c0e816129f0565b82525050565b612c1d816129b2565b82525050565b600082825260208201905092915050565b6000612c3f82612a84565b612c498185612c23565b9350612c59818560208601612aa0565b612c6281612aca565b840191505092915050565b612c7681612b14565b82525050565b600081519050919050565b600082825260208201905092915050565b6000819050602082019050919050565b6000612cb48383612c14565b60208301905092915050565b6000602082019050919050565b6000612cd882612c7c565b612ce28185612c87565b9350612ced83612c98565b8060005b83811015612d1e578151612d058882612ca8565b9750612d1083612cc0565b925050600181019050612cf1565b5085935050505092915050565b600060c083016000830151612d436000860182612c05565b506020830151612d566020860182612c14565b5060408301518482036040860152612d6e8282612c34565b9150506060830151612d836060860182612c05565b506080830151612d966080860182612c6d565b5060a083015184820360a0860152612dae8282612ccd565b9150508091505092915050565b6000612dc78383612d2b565b905092915050565b6000602082019050919050565b6000612de782612bd9565b612df18185612be4565b935083602082028501612e0385612bf5565b8060005b85811015612e3f5784840389528151612e208582612dbb565b9450612e2b83612dcf565b925060208a01995050600181019050612e07565b50829750879550505050505092915050565b60006020820190508181036000830152612e6b8184612ddc565b905092915050565b6000602082019050612e886000830184612a75565b92915050565b6000819050919050565b6000612eb3612eae612ea984612992565b612e8e565b612992565b9050919050565b6000612ec582612e98565b9050919050565b6000612ed782612eba565b9050919050565b612ee781612ecc565b82525050565b6000602082019050612f026000830184612ede565b92915050565b600080fd5b600080fd5b7f4e487b7100000000000000000000000000000000000000000000000000000000600052604160045260246000fd5b612f4a82612aca565b810181811067ffffffffffffffff82111715612f6957612f68612f12565b5b80604052505050565b6000612f7c61297e565b9050612f888282612f41565b919050565b600067ffffffffffffffff821115612fa857612fa7612f12565b5b612fb182612aca565b9050602081019050919050565b82818337600083830152505050565b6000612fe0612fdb84612f8d565b612f72565b905082815260208101848484011115612ffc57612ffb612f0d565b5b613007848285612fbe565b509392505050565b600082601f83011261302457613023612f08565b5b8135613034848260208601612fcd565b91505092915050565b60006020828403121561305357613052612988565b5b600082013567ffffffffffffffff8111156130715761307061298d565b5b61307d8482850161300f565b91505092915050565b600061309182612eba565b9050919050565b6130a181613086565b82525050565b60006020820190506130bc6000830184613098565b92915050565b600082825260208201905092915050565b60006130de82612c7c565b6130e881856130c2565b93506130f383612c98565b8060005b8381101561312457815161310b8882612ca8565b975061311683612cc0565b9250506001810190506130f7565b5085935050505092915050565b6000602082019050818103600083015261314b81846130d3565b905092915050565b60006020828403121561316957613168612988565b5b600061317784828501612a11565b91505092915050565b7f4e487b7100000000000000000000000000000000000000000000000000000000600052602260045260246000fd5b600060028204905060018216806131c757607f821691505b6020821081036131da576131d9613180565b5b50919050565b7f4e6f74206f776e6572206f722050726f66696c65000000000000000000000000600082015250565b6000613216601483612a8f565b9150613221826131e0565b602082019050919050565b6000602082019050818103600083015261324581613209565b9050919050565b7f4e487b7100000000000000000000000000000000000000000000000000000000600052601160045260246000fd5b60008160011c9050919050565b6000808291508390505b60018511156132d2578086048111156132ae576132ad61324c565b5b60018516156132bd5780820291505b80810290506132cb8561327b565b9450613292565b94509492505050565b6000826132eb57600190506133a7565b816132f957600090506133a7565b816001811461330f576002811461331957613348565b60019150506133a7565b60ff84111561332b5761332a61324c565b5b8360020a9150848211156133425761334161324c565b5b506133a7565b5060208310610133831016604e8410600b841016171561337d5782820a9050838111156133785761337761324c565b5b6133a7565b61338a8484846001613288565b925090508184048111156133a1576133a061324c565b5b81810290505b9392505050565b60006133b9826129f0565b91506133c4836129f0565b92506133f17fffffffffffffffffffffffffffffffffffffffffffffffffffffffffffffffff84846132db565b905092915050565b6000613404826129f0565b915061340f836129f0565b925082820261341d816129f0565b915082820484148315176134345761343361324c565b5b5092915050565b60006040820190506134506000830185612a75565b61345d6020830184612a66565b9392505050565b60008115159050919050565b61347981613464565b811461348457600080fd5b50565b60008151905061349681613470565b92915050565b6000602082840312156134b2576134b1612988565b5b60006134c084828501613487565b91505092915050565b7f546f6b656e207472616e73666572206661696c65640000000000000000000000600082015250565b60006134ff601583612a8f565b915061350a826134c9565b602082019050919050565b6000602082019050818103600083015261352e816134f2565b9050919050565b600081519050613544816129fa565b92915050565b6000602082840312156135605761355f612988565b5b600061356e84828501613535565b91505092915050565b600080fd5b600080fd5b600061359461358f84612f8d565b612f72565b9050828152602081018484840111156135b0576135af612f0d565b5b6135bb848285612aa0565b509392505050565b600082601f8301126135d8576135d7612f08565b5b81516135e8848260208601613581565b91505092915050565b60006040828403121561360757613606613577565b5b6136116040612f72565b9050600082015167ffffffffffffffff8111156136315761363061357c565b5b61363d848285016135c3565b600083015250602082015167ffffffffffffffff8111156136615761366061357c565b5b61366d848285016135c3565b60208301525092915050565b60006020828403121561368f5761368e612988565b5b600082015167ffffffffffffffff8111156136ad576136ac61298d565b5b6136b9848285016135f1565b91505092915050565b7f55736572206973206e6f74207265676973746572656400000000000000000000600082015250565b60006136f8601683612a8f565b9150613703826136c2565b602082019050919050565b60006020820190508181036000830152613727816136eb565b9050919050565b7f4e487b7100000000000000000000000000000000000000000000000000000000600052603260045260246000fd5b7f547765657420646f6573206e6f74206578697374000000000000000000000000600082015250565b6000613793601483612a8f565b915061379e8261375d565b602082019050919050565b600060208201905081810360008301526137c281613786565b9050919050565b7f416c7265616479206c696b656400000000000000000000000000000000000000600082015250565b60006137ff600d83612a8f565b915061380a826137c9565b602082019050919050565b6000602082019050818103600083015261382e816137f2565b9050919050565b600061384082612b14565b915067ffffffffffffffff820361385a5761385961324c565b5b600182019050919050565b7f546f6b656e207472616e7366657220746f20617574686f72206661696c656400600082015250565b600061389b601f83612a8f565b91506138a682613865565b602082019050919050565b600060208201905081810360008301526138ca8161388e565b9050919050565b600081549050919050565b60008190508160005260206000209050919050565b60008160001c9050919050565b600073ffffffffffffffffffffffffffffffffffffffff82169050919050565b600061393161392c836138f1565b6138fe565b9050919050565b6000613944825461391e565b9050919050565b6000600182019050919050565b6000613963826138d1565b61396d81856130c2565b9350613978836138dc565b8060005b838110156139b05761398d82613938565b6139978882612ca8565b97506139a28361394b565b92505060018101905061397c565b5085935050505092915050565b600060808201905081810360008301526139d78187613958565b90506139e66020830186612a75565b6139f36040830185612b28565b613a006060830184612a66565b95945050505050565b6000613a14826129f0565b9150613a1f836129f0565b9250828201905080821115613a3757613a3661324c565b5b92915050565b6000613a48826129f0565b91507fffffffffffffffffffffffffffffffffffffffffffffffffffffffffffffffff8203613a7a57613a7961324c565b5b600182019050919050565b7f496e76616c696420616464726573730000000000000000000000000000000000600082015250565b6000613abb600f83612a8f565b9150613ac682613a85565b602082019050919050565b60006020820190508181036000830152613aea81613aae565b9050919050565b7f547765657420697320746f6f204c4f4f4f4e4700000000000000000000000000600082015250565b6000613b27601383612a8f565b9150613b3282613af1565b602082019050919050565b60006020820190508181036000830152613b5681613b1a565b9050919050565b6000606082019050613b726000830186612a75565b613b7f6020830185612a75565b613b8c6040830184612a66565b949350505050565b7f496e73756666696369656e7420746f6b656e73206f7220617070726f76616c2060008201527f666f7220706f7374696e67000000000000000000000000000000000000000000602082015250565b6000613bf0602b83612a8f565b9150613bfb82613b94565b604082019050919050565b60006020820190508181036000830152613c1f81613be3565b9050919050565b60008190508160005260206000209050919050565b60006020601f8301049050919050565b600082821b905092915050565b600060088302613c887fffffffffffffffffffffffffffffffffffffffffffffffffffffffffffffffff82613c4b565b613c928683613c4b565b95508019841693508086168417925050509392505050565b6000613cc5613cc0613cbb846129f0565b612e8e565b6129f0565b9050919050565b6000819050919050565b613cdf83613caa565b613cf3613ceb82613ccc565b848454613c58565b825550505050565b600090565b613d08613cfb565b613d13818484613cd6565b505050565b5b81811015613d3757613d2c600082613d00565b600181019050613d19565b5050565b601f821115613d7c57613d4d81613c26565b613d5684613c3b565b81016020851015613d65578190505b613d79613d7185613c3b565b830182613d18565b50505b505050565b600082821c905092915050565b6000613d9f60001984600802613d81565b1980831691505092915050565b6000613db88383613d8e565b9150826002028217905092915050565b613dd182612a84565b67ffffffffffffffff811115613dea57613de9612f12565b5b613df482546131af565b613dff828285613d3b565b600060209050601f831160018114613e325760008415613e20578287015190505b613e2a8582613dac565b865550613e92565b601f198416613e4086613c26565b60005b82811015613e6857848901518255600182019150602085019450602081019050613e43565b86831015613e855784890151613e81601f891682613d8e565b8355505b6001600288020188555050505b505050505050565b6000606082019050613eaf6000830186612a66565b8181036020830152613ec18185612adb565b9050613ed06040830184612a66565b949350505050565b7f7477656574206e6f742065786973747300000000000000000000000000000000600082015250565b6000613f0e601083612a8f565b9150613f1982613ed8565b602082019050919050565b60006020820190508181036000830152613f3d81613f01565b9050919050565b7f747765657420686173206e6f206c696b65730000000000000000000000000000600082015250565b6000613f7a601283612a8f565b9150613f8582613f44565b602082019050919050565b60006020820190508181036000830152613fa981613f6d565b9050919050565b7f796f75206469646e2774206c696b656400000000000000000000000000000000600082015250565b6000613fe6601083612a8f565b9150613ff182613fb0565b602082019050919050565b6000602082019050818103600083015261401581613fd9565b9050919050565b6000614027826129f0565b9150614032836129f0565b925082820390508181111561404a5761404961324c565b5b92915050565b7f4e487b7100000000000000000000000000000000000000000000000000000000600052603160045260246000fd5b600061408a82612b14565b91506000820361409d5761409c61324c565b5b60018203905091905056fea2646970667358221220998cfa7bacf685743a00e59159b3e9de681a0af7614b031f12acdac6e97f97dd64736f6c63430008140033",
  "linkReferences": {},
  "deployedLinkReferences": {}
}